{
  "contractName": "mintNft",
  "abi": [
    {
      "inputs": [
        {
          "internalType": "address",
          "name": "Marketplace",
          "type": "address"
        }
      ],
      "stateMutability": "nonpayable",
      "type": "constructor"
    },
    {
      "anonymous": false,
      "inputs": [
        {
          "indexed": true,
          "internalType": "address",
          "name": "owner",
          "type": "address"
        },
        {
          "indexed": true,
          "internalType": "address",
          "name": "approved",
          "type": "address"
        },
        {
          "indexed": true,
          "internalType": "uint256",
          "name": "tokenId",
          "type": "uint256"
        }
      ],
      "name": "Approval",
      "type": "event"
    },
    {
      "anonymous": false,
      "inputs": [
        {
          "indexed": true,
          "internalType": "address",
          "name": "owner",
          "type": "address"
        },
        {
          "indexed": true,
          "internalType": "address",
          "name": "operator",
          "type": "address"
        },
        {
          "indexed": false,
          "internalType": "bool",
          "name": "approved",
          "type": "bool"
        }
      ],
      "name": "ApprovalForAll",
      "type": "event"
    },
    {
      "anonymous": false,
      "inputs": [
        {
          "indexed": true,
          "internalType": "address",
          "name": "previousOwner",
          "type": "address"
        },
        {
          "indexed": true,
          "internalType": "address",
          "name": "newOwner",
          "type": "address"
        }
      ],
      "name": "OwnershipTransferred",
      "type": "event"
    },
    {
      "anonymous": false,
      "inputs": [
        {
          "indexed": true,
          "internalType": "address",
          "name": "from",
          "type": "address"
        },
        {
          "indexed": true,
          "internalType": "address",
          "name": "to",
          "type": "address"
        },
        {
          "indexed": true,
          "internalType": "uint256",
          "name": "tokenId",
          "type": "uint256"
        }
      ],
      "name": "Transfer",
      "type": "event"
    },
    {
      "inputs": [
        {
          "internalType": "address",
          "name": "to",
          "type": "address"
        },
        {
          "internalType": "uint256",
          "name": "tokenId",
          "type": "uint256"
        }
      ],
      "name": "approve",
      "outputs": [],
      "stateMutability": "nonpayable",
      "type": "function"
    },
    {
      "inputs": [
        {
          "internalType": "address",
          "name": "owner",
          "type": "address"
        }
      ],
      "name": "balanceOf",
      "outputs": [
        {
          "internalType": "uint256",
          "name": "",
          "type": "uint256"
        }
      ],
      "stateMutability": "view",
      "type": "function",
      "constant": true
    },
    {
      "inputs": [
        {
          "internalType": "uint256",
          "name": "tokenId",
          "type": "uint256"
        }
      ],
      "name": "getApproved",
      "outputs": [
        {
          "internalType": "address",
          "name": "",
          "type": "address"
        }
      ],
      "stateMutability": "view",
      "type": "function",
      "constant": true
    },
    {
      "inputs": [
        {
          "internalType": "address",
          "name": "owner",
          "type": "address"
        },
        {
          "internalType": "address",
          "name": "operator",
          "type": "address"
        }
      ],
      "name": "isApprovedForAll",
      "outputs": [
        {
          "internalType": "bool",
          "name": "",
          "type": "bool"
        }
      ],
      "stateMutability": "view",
      "type": "function",
      "constant": true
    },
    {
      "inputs": [],
      "name": "name",
      "outputs": [
        {
          "internalType": "string",
          "name": "",
          "type": "string"
        }
      ],
      "stateMutability": "view",
      "type": "function",
      "constant": true
    },
    {
      "inputs": [],
      "name": "owner",
      "outputs": [
        {
          "internalType": "address",
          "name": "",
          "type": "address"
        }
      ],
      "stateMutability": "view",
      "type": "function",
      "constant": true
    },
    {
      "inputs": [
        {
          "internalType": "uint256",
          "name": "tokenId",
          "type": "uint256"
        }
      ],
      "name": "ownerOf",
      "outputs": [
        {
          "internalType": "address",
          "name": "",
          "type": "address"
        }
      ],
      "stateMutability": "view",
      "type": "function",
      "constant": true
    },
    {
      "inputs": [],
      "name": "renounceOwnership",
      "outputs": [],
      "stateMutability": "nonpayable",
      "type": "function"
    },
    {
      "inputs": [
        {
          "internalType": "address",
          "name": "from",
          "type": "address"
        },
        {
          "internalType": "address",
          "name": "to",
          "type": "address"
        },
        {
          "internalType": "uint256",
          "name": "tokenId",
          "type": "uint256"
        }
      ],
      "name": "safeTransferFrom",
      "outputs": [],
      "stateMutability": "nonpayable",
      "type": "function"
    },
    {
      "inputs": [
        {
          "internalType": "address",
          "name": "from",
          "type": "address"
        },
        {
          "internalType": "address",
          "name": "to",
          "type": "address"
        },
        {
          "internalType": "uint256",
          "name": "tokenId",
          "type": "uint256"
        },
        {
          "internalType": "bytes",
          "name": "_data",
          "type": "bytes"
        }
      ],
      "name": "safeTransferFrom",
      "outputs": [],
      "stateMutability": "nonpayable",
      "type": "function"
    },
    {
      "inputs": [
        {
          "internalType": "address",
          "name": "operator",
          "type": "address"
        },
        {
          "internalType": "bool",
          "name": "approved",
          "type": "bool"
        }
      ],
      "name": "setApprovalForAll",
      "outputs": [],
      "stateMutability": "nonpayable",
      "type": "function"
    },
    {
      "inputs": [
        {
          "internalType": "bytes4",
          "name": "interfaceId",
          "type": "bytes4"
        }
      ],
      "name": "supportsInterface",
      "outputs": [
        {
          "internalType": "bool",
          "name": "",
          "type": "bool"
        }
      ],
      "stateMutability": "view",
      "type": "function",
      "constant": true
    },
    {
      "inputs": [],
      "name": "symbol",
      "outputs": [
        {
          "internalType": "string",
          "name": "",
          "type": "string"
        }
      ],
      "stateMutability": "view",
      "type": "function",
      "constant": true
    },
    {
      "inputs": [
        {
          "internalType": "uint256",
          "name": "tokenId",
          "type": "uint256"
        }
      ],
      "name": "tokenURI",
      "outputs": [
        {
          "internalType": "string",
          "name": "",
          "type": "string"
        }
      ],
      "stateMutability": "view",
      "type": "function",
      "constant": true
    },
    {
      "inputs": [
        {
          "internalType": "address",
          "name": "from",
          "type": "address"
        },
        {
          "internalType": "address",
          "name": "to",
          "type": "address"
        },
        {
          "internalType": "uint256",
          "name": "tokenId",
          "type": "uint256"
        }
      ],
      "name": "transferFrom",
      "outputs": [],
      "stateMutability": "nonpayable",
      "type": "function"
    },
    {
      "inputs": [
        {
          "internalType": "address",
          "name": "newOwner",
          "type": "address"
        }
      ],
      "name": "transferOwnership",
      "outputs": [],
      "stateMutability": "nonpayable",
      "type": "function"
    },
    {
      "inputs": [
        {
          "internalType": "address",
          "name": "recipient",
          "type": "address"
        },
        {
          "internalType": "string",
          "name": "tokenURI",
          "type": "string"
        }
      ],
      "name": "mintNFT",
      "outputs": [
        {
          "internalType": "uint256",
          "name": "",
          "type": "uint256"
        }
      ],
      "stateMutability": "nonpayable",
      "type": "function"
    },
    {
      "inputs": [
        {
          "internalType": "address",
          "name": "_from",
          "type": "address"
        },
        {
          "internalType": "address",
          "name": "_to",
          "type": "address"
        },
        {
          "internalType": "uint256",
          "name": "tokenId",
          "type": "uint256"
        }
      ],
      "name": "sendNft",
      "outputs": [
        {
          "internalType": "uint256",
          "name": "",
          "type": "uint256"
        }
      ],
      "stateMutability": "payable",
      "type": "function",
      "payable": true
    }
  ],
  "bytecode": "0x60806040523480156200001157600080fd5b5060405162001dc238038062001dc28339810160408190526200003491620001d2565b604080518082018252600681526545697262656560d01b60208083019182528351808501909452600384526222a92160e91b9084015281519192916200007d916000916200012c565b508051620000939060019060208401906200012c565b505050620000b0620000aa620000d660201b60201c565b620000da565b600980546001600160a01b0319166001600160a01b03929092169190911790556200023f565b3390565b600780546001600160a01b038381166001600160a01b0319831681179093556040519116919082907f8be0079c531659141344cd1fd0a4f28419497f9722a3daafe3b4186f6b6457e090600090a35050565b8280546200013a9062000202565b90600052602060002090601f0160209004810192826200015e5760008555620001a9565b82601f106200017957805160ff1916838001178555620001a9565b82800160010185558215620001a9579182015b82811115620001a95782518255916020019190600101906200018c565b50620001b7929150620001bb565b5090565b5b80821115620001b75760008155600101620001bc565b600060208284031215620001e4578081fd5b81516001600160a01b0381168114620001fb578182fd5b9392505050565b6002810460018216806200021757607f821691505b602082108114156200023957634e487b7160e01b600052602260045260246000fd5b50919050565b611b73806200024f6000396000f3fe6080604052600436106101095760003560e01c8063715018a611610095578063b88d4fde11610064578063b88d4fde146102b4578063c87b56dd146102d4578063e985e9c5146102f4578063eacabe1414610314578063f2fde38b1461033457610109565b8063715018a6146102555780638da5cb5b1461026a57806395d89b411461027f578063a22cb4651461029457610109565b806323b872dd116100dc57806323b872dd146101b557806342842e0e146101d55780634d81c77d146101f55780636352211e1461021557806370a082311461023557610109565b806301ffc9a71461010e57806306fdde0314610144578063081812fc14610166578063095ea7b314610193575b600080fd5b34801561011a57600080fd5b5061012e6101293660046113c4565b610354565b60405161013b91906114e4565b60405180910390f35b34801561015057600080fd5b5061015961039c565b60405161013b91906114ef565b34801561017257600080fd5b506101866101813660046113fc565b61042e565b60405161013b919061146f565b34801561019f57600080fd5b506101b36101ae36600461139b565b61047a565b005b3480156101c157600080fd5b506101b36101d036600461124e565b610512565b3480156101e157600080fd5b506101b36101f036600461124e565b61054a565b61020861020336600461124e565b610565565b60405161013b9190611a03565b34801561022157600080fd5b506101866102303660046113fc565b6105c9565b34801561024157600080fd5b50610208610250366004611202565b6105fe565b34801561026157600080fd5b506101b3610642565b34801561027657600080fd5b5061018661068d565b34801561028b57600080fd5b5061015961069c565b3480156102a057600080fd5b506101b36102af366004611302565b6106ab565b3480156102c057600080fd5b506101b36102cf366004611289565b6106c1565b3480156102e057600080fd5b506101596102ef3660046113fc565b610700565b34801561030057600080fd5b5061012e61030f36600461121c565b610821565b34801561032057600080fd5b5061020861032f36600461133c565b61084f565b34801561034057600080fd5b506101b361034f366004611202565b6108da565b60006001600160e01b031982166380ac58cd60e01b148061038557506001600160e01b03198216635b5e139f60e01b145b8061039457506103948261094b565b90505b919050565b6060600080546103ab90611a7b565b80601f01602080910402602001604051908101604052809291908181526020018280546103d790611a7b565b80156104245780601f106103f957610100808354040283529160200191610424565b820191906000526020600020905b81548152906001019060200180831161040757829003601f168201915b5050505050905090565b600061043982610964565b61045e5760405162461bcd60e51b8152600401610455906118a1565b60405180910390fd5b506000908152600460205260409020546001600160a01b031690565b6000610485826105c9565b9050806001600160a01b0316836001600160a01b031614156104b95760405162461bcd60e51b815260040161045590611971565b806001600160a01b03166104cb610981565b6001600160a01b031614806104e757506104e78161030f610981565b6105035760405162461bcd60e51b8152600401610455906116dd565b61050d8383610985565b505050565b61052361051d610981565b826109f3565b61053f5760405162461bcd60e51b8152600401610455906119b2565b61050d838383610a70565b61050d838383604051806020016040528060008152506106c1565b6040516323b872dd60e01b815260009030906323b872dd9061058f90879087908790600401611483565b600060405180830381600087803b1580156105a957600080fd5b505af11580156105bd573d6000803e3d6000fd5b50939695505050505050565b6000818152600260205260408120546001600160a01b0316806103945760405162461bcd60e51b815260040161045590611784565b60006001600160a01b0382166106265760405162461bcd60e51b81526004016104559061173a565b506001600160a01b031660009081526003602052604090205490565b61064a610981565b6001600160a01b031661065b61068d565b6001600160a01b0316146106815760405162461bcd60e51b8152600401610455906118ed565b61068b6000610ba3565b565b6007546001600160a01b031690565b6060600180546103ab90611a7b565b6106bd6106b6610981565b8383610bf5565b5050565b6106d26106cc610981565b836109f3565b6106ee5760405162461bcd60e51b8152600401610455906119b2565b6106fa84848484610c98565b50505050565b606061070b82610964565b6107275760405162461bcd60e51b815260040161045590611850565b6000828152600660205260408120805461074090611a7b565b80601f016020809104026020016040519081016040528092919081815260200182805461076c90611a7b565b80156107b95780601f1061078e576101008083540402835291602001916107b9565b820191906000526020600020905b81548152906001019060200180831161079c57829003601f168201915b5050505050905060006107ca610ccb565b90508051600014156107de57509050610397565b8151156108105780826040516020016107f8929190611440565b60405160208183030381529060405292505050610397565b61081984610cdd565b949350505050565b6001600160a01b03918216600090815260056020908152604080832093909416825291909152205460ff1690565b6000610859610981565b6001600160a01b031661086a61068d565b6001600160a01b0316146108905760405162461bcd60e51b8152600401610455906118ed565b61089a6008610d5f565b60006108a66008610d68565b90506108b28482610d6c565b6108bc8184610e53565b6009546108d3906001600160a01b031660016106ab565b9392505050565b6108e2610981565b6001600160a01b03166108f361068d565b6001600160a01b0316146109195760405162461bcd60e51b8152600401610455906118ed565b6001600160a01b03811661093f5760405162461bcd60e51b815260040161045590611554565b61094881610ba3565b50565b6001600160e01b031981166301ffc9a760e01b14919050565b6000908152600260205260409020546001600160a01b0316151590565b3390565b600081815260046020526040902080546001600160a01b0319166001600160a01b03841690811790915581906109ba826105c9565b6001600160a01b03167f8c5be1e5ebec7d5bd14f71427d1e84f3dd0314c0f7b2291e5b200ac8c7c3b92560405160405180910390a45050565b60006109fe82610964565b610a1a5760405162461bcd60e51b815260040161045590611691565b6000610a25836105c9565b9050806001600160a01b0316846001600160a01b03161480610a605750836001600160a01b0316610a558461042e565b6001600160a01b0316145b8061081957506108198185610821565b826001600160a01b0316610a83826105c9565b6001600160a01b031614610aa95760405162461bcd60e51b81526004016104559061159a565b6001600160a01b038216610acf5760405162461bcd60e51b815260040161045590611616565b610ada83838361050d565b610ae5600082610985565b6001600160a01b0383166000908152600360205260408120805460019290610b0e908490611a38565b90915550506001600160a01b0382166000908152600360205260408120805460019290610b3c908490611a0c565b909155505060008181526002602052604080822080546001600160a01b0319166001600160a01b0386811691821790925591518493918716917fddf252ad1be2c89b69c2b068fc378daa952ba7f163c4a11628f55a4df523b3ef91a461050d83838361050d565b600780546001600160a01b038381166001600160a01b0319831681179093556040519116919082907f8be0079c531659141344cd1fd0a4f28419497f9722a3daafe3b4186f6b6457e090600090a35050565b816001600160a01b0316836001600160a01b03161415610c275760405162461bcd60e51b81526004016104559061165a565b6001600160a01b0383811660008181526005602090815260408083209487168084529490915290819020805460ff1916851515179055517f17307eab39ab6107e8899845ad3d59bd9653f200f220920489ca2b5937696c3190610c8b9085906114e4565b60405180910390a3505050565b610ca3848484610a70565b610caf84848484610e97565b6106fa5760405162461bcd60e51b815260040161045590611502565b60408051602081019091526000815290565b6060610ce882610964565b610d045760405162461bcd60e51b815260040161045590611922565b6000610d0e610ccb565b90506000815111610d2e57604051806020016040528060008152506108d3565b80610d3884610fb2565b604051602001610d49929190611440565b6040516020818303038152906040529392505050565b80546001019055565b5490565b6001600160a01b038216610d925760405162461bcd60e51b81526004016104559061181b565b610d9b81610964565b15610db85760405162461bcd60e51b8152600401610455906115df565b610dc46000838361050d565b6001600160a01b0382166000908152600360205260408120805460019290610ded908490611a0c565b909155505060008181526002602052604080822080546001600160a01b0319166001600160a01b03861690811790915590518392907fddf252ad1be2c89b69c2b068fc378daa952ba7f163c4a11628f55a4df523b3ef908290a46106bd6000838361050d565b610e5c82610964565b610e785760405162461bcd60e51b8152600401610455906117cd565b6000828152600660209081526040909120825161050d928401906110dc565b6000610eab846001600160a01b03166110cd565b15610fa757836001600160a01b031663150b7a02610ec7610981565b8786866040518563ffffffff1660e01b8152600401610ee994939291906114a7565b602060405180830381600087803b158015610f0357600080fd5b505af1925050508015610f33575060408051601f3d908101601f19168201909252610f30918101906113e0565b60015b610f8d573d808015610f61576040519150601f19603f3d011682016040523d82523d6000602084013e610f66565b606091505b508051610f855760405162461bcd60e51b815260040161045590611502565b805181602001fd5b6001600160e01b031916630a85bd0160e11b149050610819565b506001949350505050565b606081610fd757506040805180820190915260018152600360fc1b6020820152610397565b8160005b81156110015780610feb81611ab6565b9150610ffa9050600a83611a24565b9150610fdb565b60008167ffffffffffffffff81111561102a57634e487b7160e01b600052604160045260246000fd5b6040519080825280601f01601f191660200182016040528015611054576020820181803683370190505b5090505b841561081957611069600183611a38565b9150611076600a86611ad1565b611081906030611a0c565b60f81b8183815181106110a457634e487b7160e01b600052603260045260246000fd5b60200101906001600160f81b031916908160001a9053506110c6600a86611a24565b9450611058565b6001600160a01b03163b151590565b8280546110e890611a7b565b90600052602060002090601f01602090048101928261110a5760008555611150565b82601f1061112357805160ff1916838001178555611150565b82800160010185558215611150579182015b82811115611150578251825591602001919060010190611135565b5061115c929150611160565b5090565b5b8082111561115c5760008155600101611161565b600067ffffffffffffffff8084111561119057611190611b11565b604051601f8501601f19908116603f011681019082821181831017156111b8576111b8611b11565b816040528093508581528686860111156111d157600080fd5b858560208301376000602087830101525050509392505050565b80356001600160a01b038116811461039757600080fd5b600060208284031215611213578081fd5b6108d3826111eb565b6000806040838503121561122e578081fd5b611237836111eb565b9150611245602084016111eb565b90509250929050565b600080600060608486031215611262578081fd5b61126b846111eb565b9250611279602085016111eb565b9150604084013590509250925092565b6000806000806080858703121561129e578081fd5b6112a7856111eb565b93506112b5602086016111eb565b925060408501359150606085013567ffffffffffffffff8111156112d7578182fd5b8501601f810187136112e7578182fd5b6112f687823560208401611175565b91505092959194509250565b60008060408385031215611314578182fd5b61131d836111eb565b915060208301358015158114611331578182fd5b809150509250929050565b6000806040838503121561134e578182fd5b611357836111eb565b9150602083013567ffffffffffffffff811115611372578182fd5b8301601f81018513611382578182fd5b61139185823560208401611175565b9150509250929050565b600080604083850312156113ad578182fd5b6113b6836111eb565b946020939093013593505050565b6000602082840312156113d5578081fd5b81356108d381611b27565b6000602082840312156113f1578081fd5b81516108d381611b27565b60006020828403121561140d578081fd5b5035919050565b6000815180845261142c816020860160208601611a4f565b601f01601f19169290920160200192915050565b60008351611452818460208801611a4f565b835190830190611466818360208801611a4f565b01949350505050565b6001600160a01b0391909116815260200190565b6001600160a01b039384168152919092166020820152604081019190915260600190565b6001600160a01b03858116825284166020820152604081018390526080606082018190526000906114da90830184611414565b9695505050505050565b901515815260200190565b6000602082526108d36020830184611414565b60208082526032908201527f4552433732313a207472616e7366657220746f206e6f6e20455243373231526560408201527131b2b4bb32b91034b6b83632b6b2b73a32b960711b606082015260800190565b60208082526026908201527f4f776e61626c653a206e6577206f776e657220697320746865207a65726f206160408201526564647265737360d01b606082015260800190565b60208082526025908201527f4552433732313a207472616e736665722066726f6d20696e636f72726563742060408201526437bbb732b960d91b606082015260800190565b6020808252601c908201527f4552433732313a20746f6b656e20616c7265616479206d696e74656400000000604082015260600190565b60208082526024908201527f4552433732313a207472616e7366657220746f20746865207a65726f206164646040820152637265737360e01b606082015260800190565b60208082526019908201527f4552433732313a20617070726f766520746f2063616c6c657200000000000000604082015260600190565b6020808252602c908201527f4552433732313a206f70657261746f7220717565727920666f72206e6f6e657860408201526b34b9ba32b73a103a37b5b2b760a11b606082015260800190565b60208082526038908201527f4552433732313a20617070726f76652063616c6c6572206973206e6f74206f7760408201527f6e6572206e6f7220617070726f76656420666f7220616c6c0000000000000000606082015260800190565b6020808252602a908201527f4552433732313a2062616c616e636520717565727920666f7220746865207a65604082015269726f206164647265737360b01b606082015260800190565b60208082526029908201527f4552433732313a206f776e657220717565727920666f72206e6f6e657869737460408201526832b73a103a37b5b2b760b91b606082015260800190565b6020808252602e908201527f45524337323155524953746f726167653a2055524920736574206f66206e6f6e60408201526d32bc34b9ba32b73a103a37b5b2b760911b606082015260800190565b6020808252818101527f4552433732313a206d696e7420746f20746865207a65726f2061646472657373604082015260600190565b60208082526031908201527f45524337323155524953746f726167653a2055524920717565727920666f72206040820152703737b732bc34b9ba32b73a103a37b5b2b760791b606082015260800190565b6020808252602c908201527f4552433732313a20617070726f76656420717565727920666f72206e6f6e657860408201526b34b9ba32b73a103a37b5b2b760a11b606082015260800190565b6020808252818101527f4f776e61626c653a2063616c6c6572206973206e6f7420746865206f776e6572604082015260600190565b6020808252602f908201527f4552433732314d657461646174613a2055524920717565727920666f72206e6f60408201526e3732bc34b9ba32b73a103a37b5b2b760891b606082015260800190565b60208082526021908201527f4552433732313a20617070726f76616c20746f2063757272656e74206f776e656040820152603960f91b606082015260800190565b60208082526031908201527f4552433732313a207472616e736665722063616c6c6572206973206e6f74206f6040820152701ddb995c881b9bdc88185c1c1c9bdd9959607a1b606082015260800190565b90815260200190565b60008219821115611a1f57611a1f611ae5565b500190565b600082611a3357611a33611afb565b500490565b600082821015611a4a57611a4a611ae5565b500390565b60005b83811015611a6a578181015183820152602001611a52565b838111156106fa5750506000910152565b600281046001821680611a8f57607f821691505b60208210811415611ab057634e487b7160e01b600052602260045260246000fd5b50919050565b6000600019821415611aca57611aca611ae5565b5060010190565b600082611ae057611ae0611afb565b500690565b634e487b7160e01b600052601160045260246000fd5b634e487b7160e01b600052601260045260246000fd5b634e487b7160e01b600052604160045260246000fd5b6001600160e01b03198116811461094857600080fdfea2646970667358221220f2cfa378d2d092f54ff67bdac3854dcac317ac73abc868c2f4a0f64ad86bb01164736f6c63430008010033",
  "immutableReferences": {},
  "source": "//Contract based on [https://docs.openzeppelin.com/contracts/3.x/erc721](https://docs.openzeppelin.com/contracts/3.x/erc721)\n// SPDX-License-Identifier: MIT\n\npragma solidity ^0.8.0;\n\n\nimport \"@openzeppelin/contracts/token/ERC721/ERC721.sol\";\nimport \"@openzeppelin/contracts/utils/Counters.sol\";\nimport \"@openzeppelin/contracts/access/Ownable.sol\";\nimport \"@openzeppelin/contracts/token/ERC721/extensions/ERC721URIStorage.sol\";\n\n\ncontract mintNft is ERC721URIStorage, Ownable {\n    using Counters for Counters.Counter;\n    Counters.Counter private _tokenIds;\n    address contractAddress;\n\n    constructor(address Marketplace) ERC721(\"Eirbee\", \"ERB\") {\n        contractAddress = Marketplace;\n    }\n\n    function mintNFT(address recipient, string memory tokenURI) public onlyOwner returns (uint256) {\n        _tokenIds.increment();\n\n        uint256 newItemId = _tokenIds.current();\n        _mint(recipient, newItemId);\n        _setTokenURI(newItemId, tokenURI);\n        // approve(contractAddress, newItemId);\n        setApprovalForAll(contractAddress, true);\n\n        return newItemId;\n    }\n\n    function sendNft(address _from, address _to, uint256 tokenId) payable public returns (uint256) {\n        IERC721(address(this)).transferFrom(_from, _to, tokenId);\n        return tokenId;\n    }\n}\n\n",
  "sourcePath": "/Users/guillaume/Documents/cours/Enseirb/2A/S8/Projet Eirbmon/code/eirbmon/eirbmon/blockchain/contracts/mintNft.sol",
  "compiler": {
    "name": "solc",
    "version": "0.8.1+commit.df193b15.Emscripten.clang"
  },
  "schemaVersion": "3.4.3",
  "updatedAt": "2022-04-26T14:31:05.687Z",
  "networkType": "ethereum",
  "devdoc": {
    "kind": "dev",
    "methods": {
      "approve(address,uint256)": {
        "details": "See {IERC721-approve}."
      },
      "balanceOf(address)": {
        "details": "See {IERC721-balanceOf}."
      },
      "getApproved(uint256)": {
        "details": "See {IERC721-getApproved}."
      },
      "isApprovedForAll(address,address)": {
        "details": "See {IERC721-isApprovedForAll}."
      },
      "name()": {
        "details": "See {IERC721Metadata-name}."
      },
      "owner()": {
        "details": "Returns the address of the current owner."
      },
      "ownerOf(uint256)": {
        "details": "See {IERC721-ownerOf}."
      },
      "renounceOwnership()": {
        "details": "Leaves the contract without owner. It will not be possible to call `onlyOwner` functions anymore. Can only be called by the current owner. NOTE: Renouncing ownership will leave the contract without an owner, thereby removing any functionality that is only available to the owner."
      },
      "safeTransferFrom(address,address,uint256)": {
        "details": "See {IERC721-safeTransferFrom}."
      },
      "safeTransferFrom(address,address,uint256,bytes)": {
        "details": "See {IERC721-safeTransferFrom}."
      },
      "setApprovalForAll(address,bool)": {
        "details": "See {IERC721-setApprovalForAll}."
      },
      "supportsInterface(bytes4)": {
        "details": "See {IERC165-supportsInterface}."
      },
      "symbol()": {
        "details": "See {IERC721Metadata-symbol}."
      },
      "tokenURI(uint256)": {
        "details": "See {IERC721Metadata-tokenURI}."
      },
      "transferFrom(address,address,uint256)": {
        "details": "See {IERC721-transferFrom}."
      },
      "transferOwnership(address)": {
        "details": "Transfers ownership of the contract to a new account (`newOwner`). Can only be called by the current owner."
      }
    },
    "version": 1
  },
  "userdoc": {
    "kind": "user",
    "methods": {},
    "version": 1
  }
}