{
  "contractName": "mintNft",
  "abi": [
    {
      "inputs": [
        {
          "internalType": "address",
          "name": "Marketplace",
          "type": "address"
        }
      ],
      "stateMutability": "nonpayable",
      "type": "constructor"
    },
    {
      "anonymous": false,
      "inputs": [
        {
          "indexed": true,
          "internalType": "address",
          "name": "owner",
          "type": "address"
        },
        {
          "indexed": true,
          "internalType": "address",
          "name": "approved",
          "type": "address"
        },
        {
          "indexed": true,
          "internalType": "uint256",
          "name": "tokenId",
          "type": "uint256"
        }
      ],
      "name": "Approval",
      "type": "event"
    },
    {
      "anonymous": false,
      "inputs": [
        {
          "indexed": true,
          "internalType": "address",
          "name": "owner",
          "type": "address"
        },
        {
          "indexed": true,
          "internalType": "address",
          "name": "operator",
          "type": "address"
        },
        {
          "indexed": false,
          "internalType": "bool",
          "name": "approved",
          "type": "bool"
        }
      ],
      "name": "ApprovalForAll",
      "type": "event"
    },
    {
      "anonymous": false,
      "inputs": [
        {
          "indexed": true,
          "internalType": "address",
          "name": "previousOwner",
          "type": "address"
        },
        {
          "indexed": true,
          "internalType": "address",
          "name": "newOwner",
          "type": "address"
        }
      ],
      "name": "OwnershipTransferred",
      "type": "event"
    },
    {
      "anonymous": false,
      "inputs": [
        {
          "indexed": true,
          "internalType": "address",
          "name": "from",
          "type": "address"
        },
        {
          "indexed": true,
          "internalType": "address",
          "name": "to",
          "type": "address"
        },
        {
          "indexed": true,
          "internalType": "uint256",
          "name": "tokenId",
          "type": "uint256"
        }
      ],
      "name": "Transfer",
      "type": "event"
    },
    {
      "inputs": [
        {
          "internalType": "address",
          "name": "to",
          "type": "address"
        },
        {
          "internalType": "uint256",
          "name": "tokenId",
          "type": "uint256"
        }
      ],
      "name": "approve",
      "outputs": [],
      "stateMutability": "nonpayable",
      "type": "function"
    },
    {
      "inputs": [
        {
          "internalType": "address",
          "name": "owner",
          "type": "address"
        }
      ],
      "name": "balanceOf",
      "outputs": [
        {
          "internalType": "uint256",
          "name": "",
          "type": "uint256"
        }
      ],
      "stateMutability": "view",
      "type": "function",
      "constant": true
    },
    {
      "inputs": [
        {
          "internalType": "uint256",
          "name": "tokenId",
          "type": "uint256"
        }
      ],
      "name": "getApproved",
      "outputs": [
        {
          "internalType": "address",
          "name": "",
          "type": "address"
        }
      ],
      "stateMutability": "view",
      "type": "function",
      "constant": true
    },
    {
      "inputs": [
        {
          "internalType": "address",
          "name": "owner",
          "type": "address"
        },
        {
          "internalType": "address",
          "name": "operator",
          "type": "address"
        }
      ],
      "name": "isApprovedForAll",
      "outputs": [
        {
          "internalType": "bool",
          "name": "",
          "type": "bool"
        }
      ],
      "stateMutability": "view",
      "type": "function",
      "constant": true
    },
    {
      "inputs": [],
      "name": "name",
      "outputs": [
        {
          "internalType": "string",
          "name": "",
          "type": "string"
        }
      ],
      "stateMutability": "view",
      "type": "function",
      "constant": true
    },
    {
      "inputs": [],
      "name": "owner",
      "outputs": [
        {
          "internalType": "address",
          "name": "",
          "type": "address"
        }
      ],
      "stateMutability": "view",
      "type": "function",
      "constant": true
    },
    {
      "inputs": [
        {
          "internalType": "uint256",
          "name": "tokenId",
          "type": "uint256"
        }
      ],
      "name": "ownerOf",
      "outputs": [
        {
          "internalType": "address",
          "name": "",
          "type": "address"
        }
      ],
      "stateMutability": "view",
      "type": "function",
      "constant": true
    },
    {
      "inputs": [],
      "name": "renounceOwnership",
      "outputs": [],
      "stateMutability": "nonpayable",
      "type": "function"
    },
    {
      "inputs": [
        {
          "internalType": "address",
          "name": "from",
          "type": "address"
        },
        {
          "internalType": "address",
          "name": "to",
          "type": "address"
        },
        {
          "internalType": "uint256",
          "name": "tokenId",
          "type": "uint256"
        }
      ],
      "name": "safeTransferFrom",
      "outputs": [],
      "stateMutability": "nonpayable",
      "type": "function"
    },
    {
      "inputs": [
        {
          "internalType": "address",
          "name": "from",
          "type": "address"
        },
        {
          "internalType": "address",
          "name": "to",
          "type": "address"
        },
        {
          "internalType": "uint256",
          "name": "tokenId",
          "type": "uint256"
        },
        {
          "internalType": "bytes",
          "name": "_data",
          "type": "bytes"
        }
      ],
      "name": "safeTransferFrom",
      "outputs": [],
      "stateMutability": "nonpayable",
      "type": "function"
    },
    {
      "inputs": [
        {
          "internalType": "address",
          "name": "operator",
          "type": "address"
        },
        {
          "internalType": "bool",
          "name": "approved",
          "type": "bool"
        }
      ],
      "name": "setApprovalForAll",
      "outputs": [],
      "stateMutability": "nonpayable",
      "type": "function"
    },
    {
      "inputs": [
        {
          "internalType": "bytes4",
          "name": "interfaceId",
          "type": "bytes4"
        }
      ],
      "name": "supportsInterface",
      "outputs": [
        {
          "internalType": "bool",
          "name": "",
          "type": "bool"
        }
      ],
      "stateMutability": "view",
      "type": "function",
      "constant": true
    },
    {
      "inputs": [],
      "name": "symbol",
      "outputs": [
        {
          "internalType": "string",
          "name": "",
          "type": "string"
        }
      ],
      "stateMutability": "view",
      "type": "function",
      "constant": true
    },
    {
      "inputs": [
        {
          "internalType": "uint256",
          "name": "tokenId",
          "type": "uint256"
        }
      ],
      "name": "tokenURI",
      "outputs": [
        {
          "internalType": "string",
          "name": "",
          "type": "string"
        }
      ],
      "stateMutability": "view",
      "type": "function",
      "constant": true
    },
    {
      "inputs": [
        {
          "internalType": "address",
          "name": "from",
          "type": "address"
        },
        {
          "internalType": "address",
          "name": "to",
          "type": "address"
        },
        {
          "internalType": "uint256",
          "name": "tokenId",
          "type": "uint256"
        }
      ],
      "name": "transferFrom",
      "outputs": [],
      "stateMutability": "nonpayable",
      "type": "function"
    },
    {
      "inputs": [
        {
          "internalType": "address",
          "name": "newOwner",
          "type": "address"
        }
      ],
      "name": "transferOwnership",
      "outputs": [],
      "stateMutability": "nonpayable",
      "type": "function"
    },
    {
      "inputs": [
        {
          "internalType": "address",
          "name": "recipient",
          "type": "address"
        },
        {
          "internalType": "string",
          "name": "tokenURI",
          "type": "string"
        }
      ],
      "name": "mintNFT",
      "outputs": [
        {
          "internalType": "uint256",
          "name": "",
          "type": "uint256"
        }
      ],
      "stateMutability": "nonpayable",
      "type": "function"
    }
  ],
  "bytecode": "0x60806040523480156200001157600080fd5b50604051620033d9380380620033d98339818101604052810190620000379190620002d4565b6040518060400160405280600681526020017f45697262656500000000000000000000000000000000000000000000000000008152506040518060400160405280600381526020017f45524200000000000000000000000000000000000000000000000000000000008152508160009080519060200190620000bb9291906200020d565b508060019080519060200190620000d49291906200020d565b505050620000f7620000eb6200013f60201b60201c565b6200014760201b60201c565b80600960006101000a81548173ffffffffffffffffffffffffffffffffffffffff021916908373ffffffffffffffffffffffffffffffffffffffff16021790555050620003b3565b600033905090565b6000600760009054906101000a900473ffffffffffffffffffffffffffffffffffffffff16905081600760006101000a81548173ffffffffffffffffffffffffffffffffffffffff021916908373ffffffffffffffffffffffffffffffffffffffff1602179055508173ffffffffffffffffffffffffffffffffffffffff168173ffffffffffffffffffffffffffffffffffffffff167f8be0079c531659141344cd1fd0a4f28419497f9722a3daafe3b4186f6b6457e060405160405180910390a35050565b8280546200021b9062000334565b90600052602060002090601f0160209004810192826200023f57600085556200028b565b82601f106200025a57805160ff19168380011785556200028b565b828001600101855582156200028b579182015b828111156200028a5782518255916020019190600101906200026d565b5b5090506200029a91906200029e565b5090565b5b80821115620002b95760008160009055506001016200029f565b5090565b600081519050620002ce8162000399565b92915050565b600060208284031215620002e757600080fd5b6000620002f784828501620002bd565b91505092915050565b60006200030d8262000314565b9050919050565b600073ffffffffffffffffffffffffffffffffffffffff82169050919050565b600060028204905060018216806200034d57607f821691505b602082108114156200036457620003636200036a565b5b50919050565b7f4e487b7100000000000000000000000000000000000000000000000000000000600052602260045260246000fd5b620003a48162000300565b8114620003b057600080fd5b50565b61301680620003c36000396000f3fe608060405234801561001057600080fd5b506004361061010b5760003560e01c8063715018a6116100a2578063b88d4fde11610071578063b88d4fde146102a4578063c87b56dd146102c0578063e985e9c5146102f0578063eacabe1414610320578063f2fde38b146103505761010b565b8063715018a6146102425780638da5cb5b1461024c57806395d89b411461026a578063a22cb465146102885761010b565b806323b872dd116100de57806323b872dd146101aa57806342842e0e146101c65780636352211e146101e257806370a08231146102125761010b565b806301ffc9a71461011057806306fdde0314610140578063081812fc1461015e578063095ea7b31461018e575b600080fd5b61012a60048036038101906101259190611fc5565b61036c565b6040516101379190612411565b60405180910390f35b61014861044e565b604051610155919061242c565b60405180910390f35b61017860048036038101906101739190612017565b6104e0565b60405161018591906123aa565b60405180910390f35b6101a860048036038101906101a39190611f89565b610565565b005b6101c460048036038101906101bf9190611e2f565b61067d565b005b6101e060048036038101906101db9190611e2f565b6106dd565b005b6101fc60048036038101906101f79190612017565b6106fd565b60405161020991906123aa565b60405180910390f35b61022c60048036038101906102279190611dca565b6107af565b604051610239919061268e565b60405180910390f35b61024a610867565b005b6102546108ef565b60405161026191906123aa565b60405180910390f35b610272610919565b60405161027f919061242c565b60405180910390f35b6102a2600480360381019061029d9190611ef9565b6109ab565b005b6102be60048036038101906102b99190611e7e565b6109c1565b005b6102da60048036038101906102d59190612017565b610a23565b6040516102e7919061242c565b60405180910390f35b61030a60048036038101906103059190611df3565b610b75565b6040516103179190612411565b60405180910390f35b61033a60048036038101906103359190611f35565b610c09565b604051610347919061268e565b60405180910390f35b61036a60048036038101906103659190611dca565b610cea565b005b60007f80ac58cd000000000000000000000000000000000000000000000000000000007bffffffffffffffffffffffffffffffffffffffffffffffffffffffff1916827bffffffffffffffffffffffffffffffffffffffffffffffffffffffff1916148061043757507f5b5e139f000000000000000000000000000000000000000000000000000000007bffffffffffffffffffffffffffffffffffffffffffffffffffffffff1916827bffffffffffffffffffffffffffffffffffffffffffffffffffffffff1916145b80610447575061044682610de2565b5b9050919050565b60606000805461045d906128e4565b80601f0160208091040260200160405190810160405280929190818152602001828054610489906128e4565b80156104d65780601f106104ab576101008083540402835291602001916104d6565b820191906000526020600020905b8154815290600101906020018083116104b957829003601f168201915b5050505050905090565b60006104eb82610e4c565b61052a576040517f08c379a0000000000000000000000000000000000000000000000000000000008152600401610521906125ee565b60405180910390fd5b6004600083815260200190815260200160002060009054906101000a900473ffffffffffffffffffffffffffffffffffffffff169050919050565b6000610570826106fd565b90508073ffffffffffffffffffffffffffffffffffffffff168373ffffffffffffffffffffffffffffffffffffffff1614156105e1576040517f08c379a00000000000000000000000000000000000000000000000000000000081526004016105d89061264e565b60405180910390fd5b8073ffffffffffffffffffffffffffffffffffffffff16610600610eb8565b73ffffffffffffffffffffffffffffffffffffffff16148061062f575061062e81610629610eb8565b610b75565b5b61066e576040517f08c379a00000000000000000000000000000000000000000000000000000000081526004016106659061252e565b60405180910390fd5b6106788383610ec0565b505050565b61068e610688610eb8565b82610f79565b6106cd576040517f08c379a00000000000000000000000000000000000000000000000000000000081526004016106c49061266e565b60405180910390fd5b6106d8838383611057565b505050565b6106f8838383604051806020016040528060008152506109c1565b505050565b6000806002600084815260200190815260200160002060009054906101000a900473ffffffffffffffffffffffffffffffffffffffff169050600073ffffffffffffffffffffffffffffffffffffffff168173ffffffffffffffffffffffffffffffffffffffff1614156107a6576040517f08c379a000000000000000000000000000000000000000000000000000000000815260040161079d9061256e565b60405180910390fd5b80915050919050565b60008073ffffffffffffffffffffffffffffffffffffffff168273ffffffffffffffffffffffffffffffffffffffff161415610820576040517f08c379a00000000000000000000000000000000000000000000000000000000081526004016108179061254e565b60405180910390fd5b600360008373ffffffffffffffffffffffffffffffffffffffff1673ffffffffffffffffffffffffffffffffffffffff168152602001908152602001600020549050919050565b61086f610eb8565b73ffffffffffffffffffffffffffffffffffffffff1661088d6108ef565b73ffffffffffffffffffffffffffffffffffffffff16146108e3576040517f08c379a00000000000000000000000000000000000000000000000000000000081526004016108da9061260e565b60405180910390fd5b6108ed60006112be565b565b6000600760009054906101000a900473ffffffffffffffffffffffffffffffffffffffff16905090565b606060018054610928906128e4565b80601f0160208091040260200160405190810160405280929190818152602001828054610954906128e4565b80156109a15780601f10610976576101008083540402835291602001916109a1565b820191906000526020600020905b81548152906001019060200180831161098457829003601f168201915b5050505050905090565b6109bd6109b6610eb8565b8383611384565b5050565b6109d26109cc610eb8565b83610f79565b610a11576040517f08c379a0000000000000000000000000000000000000000000000000000000008152600401610a089061266e565b60405180910390fd5b610a1d848484846114f1565b50505050565b6060610a2e82610e4c565b610a6d576040517f08c379a0000000000000000000000000000000000000000000000000000000008152600401610a64906125ce565b60405180910390fd5b6000600660008481526020019081526020016000208054610a8d906128e4565b80601f0160208091040260200160405190810160405280929190818152602001828054610ab9906128e4565b8015610b065780601f10610adb57610100808354040283529160200191610b06565b820191906000526020600020905b815481529060010190602001808311610ae957829003601f168201915b505050505090506000610b1761154d565b9050600081511415610b2d578192505050610b70565b600082511115610b62578082604051602001610b4a929190612386565b60405160208183030381529060405292505050610b70565b610b6b84611564565b925050505b919050565b6000600560008473ffffffffffffffffffffffffffffffffffffffff1673ffffffffffffffffffffffffffffffffffffffff16815260200190815260200160002060008373ffffffffffffffffffffffffffffffffffffffff1673ffffffffffffffffffffffffffffffffffffffff16815260200190815260200160002060009054906101000a900460ff16905092915050565b6000610c13610eb8565b73ffffffffffffffffffffffffffffffffffffffff16610c316108ef565b73ffffffffffffffffffffffffffffffffffffffff1614610c87576040517f08c379a0000000000000000000000000000000000000000000000000000000008152600401610c7e9061260e565b60405180910390fd5b610c91600861160b565b6000610c9d6008611621565b9050610ca9848261162f565b610cb38184611809565b610ce0600960009054906101000a900473ffffffffffffffffffffffffffffffffffffffff1660016109ab565b8091505092915050565b610cf2610eb8565b73ffffffffffffffffffffffffffffffffffffffff16610d106108ef565b73ffffffffffffffffffffffffffffffffffffffff1614610d66576040517f08c379a0000000000000000000000000000000000000000000000000000000008152600401610d5d9061260e565b60405180910390fd5b600073ffffffffffffffffffffffffffffffffffffffff168173ffffffffffffffffffffffffffffffffffffffff161415610dd6576040517f08c379a0000000000000000000000000000000000000000000000000000000008152600401610dcd9061246e565b60405180910390fd5b610ddf816112be565b50565b60007f01ffc9a7000000000000000000000000000000000000000000000000000000007bffffffffffffffffffffffffffffffffffffffffffffffffffffffff1916827bffffffffffffffffffffffffffffffffffffffffffffffffffffffff1916149050919050565b60008073ffffffffffffffffffffffffffffffffffffffff166002600084815260200190815260200160002060009054906101000a900473ffffffffffffffffffffffffffffffffffffffff1673ffffffffffffffffffffffffffffffffffffffff1614159050919050565b600033905090565b816004600083815260200190815260200160002060006101000a81548173ffffffffffffffffffffffffffffffffffffffff021916908373ffffffffffffffffffffffffffffffffffffffff160217905550808273ffffffffffffffffffffffffffffffffffffffff16610f33836106fd565b73ffffffffffffffffffffffffffffffffffffffff167f8c5be1e5ebec7d5bd14f71427d1e84f3dd0314c0f7b2291e5b200ac8c7c3b92560405160405180910390a45050565b6000610f8482610e4c565b610fc3576040517f08c379a0000000000000000000000000000000000000000000000000000000008152600401610fba9061250e565b60405180910390fd5b6000610fce836106fd565b90508073ffffffffffffffffffffffffffffffffffffffff168473ffffffffffffffffffffffffffffffffffffffff16148061103d57508373ffffffffffffffffffffffffffffffffffffffff16611025846104e0565b73ffffffffffffffffffffffffffffffffffffffff16145b8061104e575061104d8185610b75565b5b91505092915050565b8273ffffffffffffffffffffffffffffffffffffffff16611077826106fd565b73ffffffffffffffffffffffffffffffffffffffff16146110cd576040517f08c379a00000000000000000000000000000000000000000000000000000000081526004016110c49061248e565b60405180910390fd5b600073ffffffffffffffffffffffffffffffffffffffff168273ffffffffffffffffffffffffffffffffffffffff16141561113d576040517f08c379a0000000000000000000000000000000000000000000000000000000008152600401611134906124ce565b60405180910390fd5b61114883838361187d565b611153600082610ec0565b6001600360008573ffffffffffffffffffffffffffffffffffffffff1673ffffffffffffffffffffffffffffffffffffffff16815260200190815260200160002060008282546111a391906127fa565b925050819055506001600360008473ffffffffffffffffffffffffffffffffffffffff1673ffffffffffffffffffffffffffffffffffffffff16815260200190815260200160002060008282546111fa9190612773565b92505081905550816002600083815260200190815260200160002060006101000a81548173ffffffffffffffffffffffffffffffffffffffff021916908373ffffffffffffffffffffffffffffffffffffffff160217905550808273ffffffffffffffffffffffffffffffffffffffff168473ffffffffffffffffffffffffffffffffffffffff167fddf252ad1be2c89b69c2b068fc378daa952ba7f163c4a11628f55a4df523b3ef60405160405180910390a46112b9838383611882565b505050565b6000600760009054906101000a900473ffffffffffffffffffffffffffffffffffffffff16905081600760006101000a81548173ffffffffffffffffffffffffffffffffffffffff021916908373ffffffffffffffffffffffffffffffffffffffff1602179055508173ffffffffffffffffffffffffffffffffffffffff168173ffffffffffffffffffffffffffffffffffffffff167f8be0079c531659141344cd1fd0a4f28419497f9722a3daafe3b4186f6b6457e060405160405180910390a35050565b8173ffffffffffffffffffffffffffffffffffffffff168373ffffffffffffffffffffffffffffffffffffffff1614156113f3576040517f08c379a00000000000000000000000000000000000000000000000000000000081526004016113ea906124ee565b60405180910390fd5b80600560008573ffffffffffffffffffffffffffffffffffffffff1673ffffffffffffffffffffffffffffffffffffffff16815260200190815260200160002060008473ffffffffffffffffffffffffffffffffffffffff1673ffffffffffffffffffffffffffffffffffffffff16815260200190815260200160002060006101000a81548160ff0219169083151502179055508173ffffffffffffffffffffffffffffffffffffffff168373ffffffffffffffffffffffffffffffffffffffff167f17307eab39ab6107e8899845ad3d59bd9653f200f220920489ca2b5937696c31836040516114e49190612411565b60405180910390a3505050565b6114fc848484611057565b61150884848484611887565b611547576040517f08c379a000000000000000000000000000000000000000000000000000000000815260040161153e9061244e565b60405180910390fd5b50505050565b606060405180602001604052806000815250905090565b606061156f82610e4c565b6115ae576040517f08c379a00000000000000000000000000000000000000000000000000000000081526004016115a59061262e565b60405180910390fd5b60006115b861154d565b905060008151116115d85760405180602001604052806000815250611603565b806115e284611a1e565b6040516020016115f3929190612386565b6040516020818303038152906040525b915050919050565b6001816000016000828254019250508190555050565b600081600001549050919050565b600073ffffffffffffffffffffffffffffffffffffffff168273ffffffffffffffffffffffffffffffffffffffff16141561169f576040517f08c379a0000000000000000000000000000000000000000000000000000000008152600401611696906125ae565b60405180910390fd5b6116a881610e4c565b156116e8576040517f08c379a00000000000000000000000000000000000000000000000000000000081526004016116df906124ae565b60405180910390fd5b6116f46000838361187d565b6001600360008473ffffffffffffffffffffffffffffffffffffffff1673ffffffffffffffffffffffffffffffffffffffff16815260200190815260200160002060008282546117449190612773565b92505081905550816002600083815260200190815260200160002060006101000a81548173ffffffffffffffffffffffffffffffffffffffff021916908373ffffffffffffffffffffffffffffffffffffffff160217905550808273ffffffffffffffffffffffffffffffffffffffff16600073ffffffffffffffffffffffffffffffffffffffff167fddf252ad1be2c89b69c2b068fc378daa952ba7f163c4a11628f55a4df523b3ef60405160405180910390a461180560008383611882565b5050565b61181282610e4c565b611851576040517f08c379a00000000000000000000000000000000000000000000000000000000081526004016118489061258e565b60405180910390fd5b80600660008481526020019081526020016000209080519060200190611878929190611bee565b505050565b505050565b505050565b60006118a88473ffffffffffffffffffffffffffffffffffffffff16611bcb565b15611a11578373ffffffffffffffffffffffffffffffffffffffff1663150b7a026118d1610eb8565b8786866040518563ffffffff1660e01b81526004016118f394939291906123c5565b602060405180830381600087803b15801561190d57600080fd5b505af192505050801561193e57506040513d601f19601f8201168201806040525081019061193b9190611fee565b60015b6119c1573d806000811461196e576040519150601f19603f3d011682016040523d82523d6000602084013e611973565b606091505b506000815114156119b9576040517f08c379a00000000000000000000000000000000000000000000000000000000081526004016119b09061244e565b60405180910390fd5b805181602001fd5b63150b7a0260e01b7bffffffffffffffffffffffffffffffffffffffffffffffffffffffff1916817bffffffffffffffffffffffffffffffffffffffffffffffffffffffff191614915050611a16565b600190505b949350505050565b60606000821415611a66576040518060400160405280600181526020017f30000000000000000000000000000000000000000000000000000000000000008152509050611bc6565b600082905060005b60008214611a98578080611a8190612947565b915050600a82611a9191906127c9565b9150611a6e565b60008167ffffffffffffffff811115611ada577f4e487b7100000000000000000000000000000000000000000000000000000000600052604160045260246000fd5b6040519080825280601f01601f191660200182016040528015611b0c5781602001600182028036833780820191505090505b5090505b60008514611bbf57600182611b2591906127fa565b9150600a85611b349190612990565b6030611b409190612773565b60f81b818381518110611b7c577f4e487b7100000000000000000000000000000000000000000000000000000000600052603260045260246000fd5b60200101907effffffffffffffffffffffffffffffffffffffffffffffffffffffffffffff1916908160001a905350600a85611bb891906127c9565b9450611b10565b8093505050505b919050565b6000808273ffffffffffffffffffffffffffffffffffffffff163b119050919050565b828054611bfa906128e4565b90600052602060002090601f016020900481019282611c1c5760008555611c63565b82601f10611c3557805160ff1916838001178555611c63565b82800160010185558215611c63579182015b82811115611c62578251825591602001919060010190611c47565b5b509050611c709190611c74565b5090565b5b80821115611c8d576000816000905550600101611c75565b5090565b6000611ca4611c9f846126ce565b6126a9565b905082815260208101848484011115611cbc57600080fd5b611cc78482856128a2565b509392505050565b6000611ce2611cdd846126ff565b6126a9565b905082815260208101848484011115611cfa57600080fd5b611d058482856128a2565b509392505050565b600081359050611d1c81612f84565b92915050565b600081359050611d3181612f9b565b92915050565b600081359050611d4681612fb2565b92915050565b600081519050611d5b81612fb2565b92915050565b600082601f830112611d7257600080fd5b8135611d82848260208601611c91565b91505092915050565b600082601f830112611d9c57600080fd5b8135611dac848260208601611ccf565b91505092915050565b600081359050611dc481612fc9565b92915050565b600060208284031215611ddc57600080fd5b6000611dea84828501611d0d565b91505092915050565b60008060408385031215611e0657600080fd5b6000611e1485828601611d0d565b9250506020611e2585828601611d0d565b9150509250929050565b600080600060608486031215611e4457600080fd5b6000611e5286828701611d0d565b9350506020611e6386828701611d0d565b9250506040611e7486828701611db5565b9150509250925092565b60008060008060808587031215611e9457600080fd5b6000611ea287828801611d0d565b9450506020611eb387828801611d0d565b9350506040611ec487828801611db5565b925050606085013567ffffffffffffffff811115611ee157600080fd5b611eed87828801611d61565b91505092959194509250565b60008060408385031215611f0c57600080fd5b6000611f1a85828601611d0d565b9250506020611f2b85828601611d22565b9150509250929050565b60008060408385031215611f4857600080fd5b6000611f5685828601611d0d565b925050602083013567ffffffffffffffff811115611f7357600080fd5b611f7f85828601611d8b565b9150509250929050565b60008060408385031215611f9c57600080fd5b6000611faa85828601611d0d565b9250506020611fbb85828601611db5565b9150509250929050565b600060208284031215611fd757600080fd5b6000611fe584828501611d37565b91505092915050565b60006020828403121561200057600080fd5b600061200e84828501611d4c565b91505092915050565b60006020828403121561202957600080fd5b600061203784828501611db5565b91505092915050565b6120498161282e565b82525050565b61205881612840565b82525050565b600061206982612730565b6120738185612746565b93506120838185602086016128b1565b61208c81612a7d565b840191505092915050565b60006120a28261273b565b6120ac8185612757565b93506120bc8185602086016128b1565b6120c581612a7d565b840191505092915050565b60006120db8261273b565b6120e58185612768565b93506120f58185602086016128b1565b80840191505092915050565b600061210e603283612757565b915061211982612a8e565b604082019050919050565b6000612131602683612757565b915061213c82612add565b604082019050919050565b6000612154602583612757565b915061215f82612b2c565b604082019050919050565b6000612177601c83612757565b915061218282612b7b565b602082019050919050565b600061219a602483612757565b91506121a582612ba4565b604082019050919050565b60006121bd601983612757565b91506121c882612bf3565b602082019050919050565b60006121e0602c83612757565b91506121eb82612c1c565b604082019050919050565b6000612203603883612757565b915061220e82612c6b565b604082019050919050565b6000612226602a83612757565b915061223182612cba565b604082019050919050565b6000612249602983612757565b915061225482612d09565b604082019050919050565b600061226c602e83612757565b915061227782612d58565b604082019050919050565b600061228f602083612757565b915061229a82612da7565b602082019050919050565b60006122b2603183612757565b91506122bd82612dd0565b604082019050919050565b60006122d5602c83612757565b91506122e082612e1f565b604082019050919050565b60006122f8602083612757565b915061230382612e6e565b602082019050919050565b600061231b602f83612757565b915061232682612e97565b604082019050919050565b600061233e602183612757565b915061234982612ee6565b604082019050919050565b6000612361603183612757565b915061236c82612f35565b604082019050919050565b61238081612898565b82525050565b600061239282856120d0565b915061239e82846120d0565b91508190509392505050565b60006020820190506123bf6000830184612040565b92915050565b60006080820190506123da6000830187612040565b6123e76020830186612040565b6123f46040830185612377565b8181036060830152612406818461205e565b905095945050505050565b6000602082019050612426600083018461204f565b92915050565b600060208201905081810360008301526124468184612097565b905092915050565b6000602082019050818103600083015261246781612101565b9050919050565b6000602082019050818103600083015261248781612124565b9050919050565b600060208201905081810360008301526124a781612147565b9050919050565b600060208201905081810360008301526124c78161216a565b9050919050565b600060208201905081810360008301526124e78161218d565b9050919050565b60006020820190508181036000830152612507816121b0565b9050919050565b60006020820190508181036000830152612527816121d3565b9050919050565b60006020820190508181036000830152612547816121f6565b9050919050565b6000602082019050818103600083015261256781612219565b9050919050565b600060208201905081810360008301526125878161223c565b9050919050565b600060208201905081810360008301526125a78161225f565b9050919050565b600060208201905081810360008301526125c781612282565b9050919050565b600060208201905081810360008301526125e7816122a5565b9050919050565b60006020820190508181036000830152612607816122c8565b9050919050565b60006020820190508181036000830152612627816122eb565b9050919050565b600060208201905081810360008301526126478161230e565b9050919050565b6000602082019050818103600083015261266781612331565b9050919050565b6000602082019050818103600083015261268781612354565b9050919050565b60006020820190506126a36000830184612377565b92915050565b60006126b36126c4565b90506126bf8282612916565b919050565b6000604051905090565b600067ffffffffffffffff8211156126e9576126e8612a4e565b5b6126f282612a7d565b9050602081019050919050565b600067ffffffffffffffff82111561271a57612719612a4e565b5b61272382612a7d565b9050602081019050919050565b600081519050919050565b600081519050919050565b600082825260208201905092915050565b600082825260208201905092915050565b600081905092915050565b600061277e82612898565b915061278983612898565b9250827fffffffffffffffffffffffffffffffffffffffffffffffffffffffffffffffff038211156127be576127bd6129c1565b5b828201905092915050565b60006127d482612898565b91506127df83612898565b9250826127ef576127ee6129f0565b5b828204905092915050565b600061280582612898565b915061281083612898565b925082821015612823576128226129c1565b5b828203905092915050565b600061283982612878565b9050919050565b60008115159050919050565b60007fffffffff0000000000000000000000000000000000000000000000000000000082169050919050565b600073ffffffffffffffffffffffffffffffffffffffff82169050919050565b6000819050919050565b82818337600083830152505050565b60005b838110156128cf5780820151818401526020810190506128b4565b838111156128de576000848401525b50505050565b600060028204905060018216806128fc57607f821691505b602082108114156129105761290f612a1f565b5b50919050565b61291f82612a7d565b810181811067ffffffffffffffff8211171561293e5761293d612a4e565b5b80604052505050565b600061295282612898565b91507fffffffffffffffffffffffffffffffffffffffffffffffffffffffffffffffff821415612985576129846129c1565b5b600182019050919050565b600061299b82612898565b91506129a683612898565b9250826129b6576129b56129f0565b5b828206905092915050565b7f4e487b7100000000000000000000000000000000000000000000000000000000600052601160045260246000fd5b7f4e487b7100000000000000000000000000000000000000000000000000000000600052601260045260246000fd5b7f4e487b7100000000000000000000000000000000000000000000000000000000600052602260045260246000fd5b7f4e487b7100000000000000000000000000000000000000000000000000000000600052604160045260246000fd5b6000601f19601f8301169050919050565b7f4552433732313a207472616e7366657220746f206e6f6e20455243373231526560008201527f63656976657220696d706c656d656e7465720000000000000000000000000000602082015250565b7f4f776e61626c653a206e6577206f776e657220697320746865207a65726f206160008201527f6464726573730000000000000000000000000000000000000000000000000000602082015250565b7f4552433732313a207472616e736665722066726f6d20696e636f72726563742060008201527f6f776e6572000000000000000000000000000000000000000000000000000000602082015250565b7f4552433732313a20746f6b656e20616c7265616479206d696e74656400000000600082015250565b7f4552433732313a207472616e7366657220746f20746865207a65726f2061646460008201527f7265737300000000000000000000000000000000000000000000000000000000602082015250565b7f4552433732313a20617070726f766520746f2063616c6c657200000000000000600082015250565b7f4552433732313a206f70657261746f7220717565727920666f72206e6f6e657860008201527f697374656e7420746f6b656e0000000000000000000000000000000000000000602082015250565b7f4552433732313a20617070726f76652063616c6c6572206973206e6f74206f7760008201527f6e6572206e6f7220617070726f76656420666f7220616c6c0000000000000000602082015250565b7f4552433732313a2062616c616e636520717565727920666f7220746865207a6560008201527f726f206164647265737300000000000000000000000000000000000000000000602082015250565b7f4552433732313a206f776e657220717565727920666f72206e6f6e657869737460008201527f656e7420746f6b656e0000000000000000000000000000000000000000000000602082015250565b7f45524337323155524953746f726167653a2055524920736574206f66206e6f6e60008201527f6578697374656e7420746f6b656e000000000000000000000000000000000000602082015250565b7f4552433732313a206d696e7420746f20746865207a65726f2061646472657373600082015250565b7f45524337323155524953746f726167653a2055524920717565727920666f722060008201527f6e6f6e6578697374656e7420746f6b656e000000000000000000000000000000602082015250565b7f4552433732313a20617070726f76656420717565727920666f72206e6f6e657860008201527f697374656e7420746f6b656e0000000000000000000000000000000000000000602082015250565b7f4f776e61626c653a2063616c6c6572206973206e6f7420746865206f776e6572600082015250565b7f4552433732314d657461646174613a2055524920717565727920666f72206e6f60008201527f6e6578697374656e7420746f6b656e0000000000000000000000000000000000602082015250565b7f4552433732313a20617070726f76616c20746f2063757272656e74206f776e6560008201527f7200000000000000000000000000000000000000000000000000000000000000602082015250565b7f4552433732313a207472616e736665722063616c6c6572206973206e6f74206f60008201527f776e6572206e6f7220617070726f766564000000000000000000000000000000602082015250565b612f8d8161282e565b8114612f9857600080fd5b50565b612fa481612840565b8114612faf57600080fd5b50565b612fbb8161284c565b8114612fc657600080fd5b50565b612fd281612898565b8114612fdd57600080fd5b5056fea264697066735822122042c23a5fc1338be3dce0f262195c677deb2de2c5da2f81ce026f0aaf3f654f1464736f6c63430008010033",
  "immutableReferences": {},
  "source": "//Contract based on [https://docs.openzeppelin.com/contracts/3.x/erc721](https://docs.openzeppelin.com/contracts/3.x/erc721)\n// SPDX-License-Identifier: MIT\n\npragma solidity ^0.8.0;\n\n\nimport \"@openzeppelin/contracts/token/ERC721/ERC721.sol\";\nimport \"@openzeppelin/contracts/utils/Counters.sol\";\nimport \"@openzeppelin/contracts/access/Ownable.sol\";\nimport \"@openzeppelin/contracts/token/ERC721/extensions/ERC721URIStorage.sol\";\n\n\ncontract mintNft is ERC721URIStorage, Ownable {\n    using Counters for Counters.Counter;\n    Counters.Counter private _tokenIds;\n    address contractAddress;\n\n    constructor(address Marketplace) ERC721(\"Eirbee\", \"ERB\") {\n        contractAddress = Marketplace;\n    }\n\n    function mintNFT(address recipient, string memory tokenURI) public onlyOwner returns (uint256) {\n        _tokenIds.increment();\n\n        uint256 newItemId = _tokenIds.current();\n        _mint(recipient, newItemId);\n        _setTokenURI(newItemId, tokenURI);\n        // approve(contractAddress, newItemId);\n        setApprovalForAll(contractAddress, true);\n\n        return newItemId;\n    }\n}\n\n",
  "sourcePath": "/Users/guillaume/Documents/cours/Enseirb/2A/S8/Projet Eirbmon/code/BlockChain/truffle-alchemy/contracts/mintNft.sol",
  "compiler": {
    "name": "solc",
    "version": "0.8.1+commit.df193b15.Emscripten.clang"
  },
  "schemaVersion": "3.4.3",
  "updatedAt": "2022-04-07T10:13:43.334Z",
  "networkType": "ethereum",
  "devdoc": {
    "kind": "dev",
    "methods": {
      "approve(address,uint256)": {
        "details": "See {IERC721-approve}."
      },
      "balanceOf(address)": {
        "details": "See {IERC721-balanceOf}."
      },
      "getApproved(uint256)": {
        "details": "See {IERC721-getApproved}."
      },
      "isApprovedForAll(address,address)": {
        "details": "See {IERC721-isApprovedForAll}."
      },
      "name()": {
        "details": "See {IERC721Metadata-name}."
      },
      "owner()": {
        "details": "Returns the address of the current owner."
      },
      "ownerOf(uint256)": {
        "details": "See {IERC721-ownerOf}."
      },
      "renounceOwnership()": {
        "details": "Leaves the contract without owner. It will not be possible to call `onlyOwner` functions anymore. Can only be called by the current owner. NOTE: Renouncing ownership will leave the contract without an owner, thereby removing any functionality that is only available to the owner."
      },
      "safeTransferFrom(address,address,uint256)": {
        "details": "See {IERC721-safeTransferFrom}."
      },
      "safeTransferFrom(address,address,uint256,bytes)": {
        "details": "See {IERC721-safeTransferFrom}."
      },
      "setApprovalForAll(address,bool)": {
        "details": "See {IERC721-setApprovalForAll}."
      },
      "supportsInterface(bytes4)": {
        "details": "See {IERC165-supportsInterface}."
      },
      "symbol()": {
        "details": "See {IERC721Metadata-symbol}."
      },
      "tokenURI(uint256)": {
        "details": "See {IERC721Metadata-tokenURI}."
      },
      "transferFrom(address,address,uint256)": {
        "details": "See {IERC721-transferFrom}."
      },
      "transferOwnership(address)": {
        "details": "Transfers ownership of the contract to a new account (`newOwner`). Can only be called by the current owner."
      }
    },
    "version": 1
  },
  "userdoc": {
    "kind": "user",
    "methods": {},
    "version": 1
  }
}