{
  "contractName": "mintNft",
  "abi": [
    {
      "inputs": [
        {
          "internalType": "address",
          "name": "Marketplace",
          "type": "address"
        }
      ],
      "stateMutability": "nonpayable",
      "type": "constructor"
    },
    {
      "anonymous": false,
      "inputs": [
        {
          "indexed": true,
          "internalType": "address",
          "name": "owner",
          "type": "address"
        },
        {
          "indexed": true,
          "internalType": "address",
          "name": "approved",
          "type": "address"
        },
        {
          "indexed": true,
          "internalType": "uint256",
          "name": "tokenId",
          "type": "uint256"
        }
      ],
      "name": "Approval",
      "type": "event"
    },
    {
      "anonymous": false,
      "inputs": [
        {
          "indexed": true,
          "internalType": "address",
          "name": "owner",
          "type": "address"
        },
        {
          "indexed": true,
          "internalType": "address",
          "name": "operator",
          "type": "address"
        },
        {
          "indexed": false,
          "internalType": "bool",
          "name": "approved",
          "type": "bool"
        }
      ],
      "name": "ApprovalForAll",
      "type": "event"
    },
    {
      "anonymous": false,
      "inputs": [
        {
          "indexed": true,
          "internalType": "address",
          "name": "previousOwner",
          "type": "address"
        },
        {
          "indexed": true,
          "internalType": "address",
          "name": "newOwner",
          "type": "address"
        }
      ],
      "name": "OwnershipTransferred",
      "type": "event"
    },
    {
      "anonymous": false,
      "inputs": [
        {
          "indexed": true,
          "internalType": "address",
          "name": "from",
          "type": "address"
        },
        {
          "indexed": true,
          "internalType": "address",
          "name": "to",
          "type": "address"
        },
        {
          "indexed": true,
          "internalType": "uint256",
          "name": "tokenId",
          "type": "uint256"
        }
      ],
      "name": "Transfer",
      "type": "event"
    },
    {
      "inputs": [
        {
          "internalType": "address",
          "name": "to",
          "type": "address"
        },
        {
          "internalType": "uint256",
          "name": "tokenId",
          "type": "uint256"
        }
      ],
      "name": "approve",
      "outputs": [],
      "stateMutability": "nonpayable",
      "type": "function"
    },
    {
      "inputs": [
        {
          "internalType": "address",
          "name": "owner",
          "type": "address"
        }
      ],
      "name": "balanceOf",
      "outputs": [
        {
          "internalType": "uint256",
          "name": "",
          "type": "uint256"
        }
      ],
      "stateMutability": "view",
      "type": "function",
      "constant": true
    },
    {
      "inputs": [
        {
          "internalType": "uint256",
          "name": "tokenId",
          "type": "uint256"
        }
      ],
      "name": "getApproved",
      "outputs": [
        {
          "internalType": "address",
          "name": "",
          "type": "address"
        }
      ],
      "stateMutability": "view",
      "type": "function",
      "constant": true
    },
    {
      "inputs": [
        {
          "internalType": "address",
          "name": "owner",
          "type": "address"
        },
        {
          "internalType": "address",
          "name": "operator",
          "type": "address"
        }
      ],
      "name": "isApprovedForAll",
      "outputs": [
        {
          "internalType": "bool",
          "name": "",
          "type": "bool"
        }
      ],
      "stateMutability": "view",
      "type": "function",
      "constant": true
    },
    {
      "inputs": [],
      "name": "name",
      "outputs": [
        {
          "internalType": "string",
          "name": "",
          "type": "string"
        }
      ],
      "stateMutability": "view",
      "type": "function",
      "constant": true
    },
    {
      "inputs": [],
      "name": "owner",
      "outputs": [
        {
          "internalType": "address",
          "name": "",
          "type": "address"
        }
      ],
      "stateMutability": "view",
      "type": "function",
      "constant": true
    },
    {
      "inputs": [
        {
          "internalType": "uint256",
          "name": "tokenId",
          "type": "uint256"
        }
      ],
      "name": "ownerOf",
      "outputs": [
        {
          "internalType": "address",
          "name": "",
          "type": "address"
        }
      ],
      "stateMutability": "view",
      "type": "function",
      "constant": true
    },
    {
      "inputs": [],
      "name": "renounceOwnership",
      "outputs": [],
      "stateMutability": "nonpayable",
      "type": "function"
    },
    {
      "inputs": [
        {
          "internalType": "address",
          "name": "from",
          "type": "address"
        },
        {
          "internalType": "address",
          "name": "to",
          "type": "address"
        },
        {
          "internalType": "uint256",
          "name": "tokenId",
          "type": "uint256"
        }
      ],
      "name": "safeTransferFrom",
      "outputs": [],
      "stateMutability": "nonpayable",
      "type": "function"
    },
    {
      "inputs": [
        {
          "internalType": "address",
          "name": "from",
          "type": "address"
        },
        {
          "internalType": "address",
          "name": "to",
          "type": "address"
        },
        {
          "internalType": "uint256",
          "name": "tokenId",
          "type": "uint256"
        },
        {
          "internalType": "bytes",
          "name": "_data",
          "type": "bytes"
        }
      ],
      "name": "safeTransferFrom",
      "outputs": [],
      "stateMutability": "nonpayable",
      "type": "function"
    },
    {
      "inputs": [
        {
          "internalType": "address",
          "name": "operator",
          "type": "address"
        },
        {
          "internalType": "bool",
          "name": "approved",
          "type": "bool"
        }
      ],
      "name": "setApprovalForAll",
      "outputs": [],
      "stateMutability": "nonpayable",
      "type": "function"
    },
    {
      "inputs": [
        {
          "internalType": "bytes4",
          "name": "interfaceId",
          "type": "bytes4"
        }
      ],
      "name": "supportsInterface",
      "outputs": [
        {
          "internalType": "bool",
          "name": "",
          "type": "bool"
        }
      ],
      "stateMutability": "view",
      "type": "function",
      "constant": true
    },
    {
      "inputs": [],
      "name": "symbol",
      "outputs": [
        {
          "internalType": "string",
          "name": "",
          "type": "string"
        }
      ],
      "stateMutability": "view",
      "type": "function",
      "constant": true
    },
    {
      "inputs": [
        {
          "internalType": "uint256",
          "name": "tokenId",
          "type": "uint256"
        }
      ],
      "name": "tokenURI",
      "outputs": [
        {
          "internalType": "string",
          "name": "",
          "type": "string"
        }
      ],
      "stateMutability": "view",
      "type": "function",
      "constant": true
    },
    {
      "inputs": [
        {
          "internalType": "address",
          "name": "from",
          "type": "address"
        },
        {
          "internalType": "address",
          "name": "to",
          "type": "address"
        },
        {
          "internalType": "uint256",
          "name": "tokenId",
          "type": "uint256"
        }
      ],
      "name": "transferFrom",
      "outputs": [],
      "stateMutability": "nonpayable",
      "type": "function"
    },
    {
      "inputs": [
        {
          "internalType": "address",
          "name": "newOwner",
          "type": "address"
        }
      ],
      "name": "transferOwnership",
      "outputs": [],
      "stateMutability": "nonpayable",
      "type": "function"
    },
    {
      "inputs": [
        {
          "internalType": "address",
          "name": "recipient",
          "type": "address"
        },
        {
          "internalType": "string",
          "name": "tokenURI",
          "type": "string"
        }
      ],
      "name": "mintNFT",
      "outputs": [
        {
          "internalType": "uint256",
          "name": "",
          "type": "uint256"
        }
      ],
      "stateMutability": "nonpayable",
      "type": "function"
    },
    {
      "inputs": [
        {
          "internalType": "address",
          "name": "nftContract",
          "type": "address"
        },
        {
          "internalType": "address",
          "name": "_from",
          "type": "address"
        },
        {
          "internalType": "address",
          "name": "_to",
          "type": "address"
        },
        {
          "internalType": "uint256",
          "name": "tokenId",
          "type": "uint256"
        }
      ],
      "name": "sendNft",
      "outputs": [
        {
          "internalType": "uint256",
          "name": "",
          "type": "uint256"
        }
      ],
      "stateMutability": "nonpayable",
      "type": "function"
    }
  ],
  "bytecode": "0x60806040523480156200001157600080fd5b5060405162001d4338038062001d438339810160408190526200003491620001d2565b604080518082018252600681526545697262656560d01b60208083019182528351808501909452600384526222a92160e91b9084015281519192916200007d916000916200012c565b508051620000939060019060208401906200012c565b505050620000b0620000aa620000d660201b60201c565b620000da565b600980546001600160a01b0319166001600160a01b03929092169190911790556200023f565b3390565b600780546001600160a01b038381166001600160a01b0319831681179093556040519116919082907f8be0079c531659141344cd1fd0a4f28419497f9722a3daafe3b4186f6b6457e090600090a35050565b8280546200013a9062000202565b90600052602060002090601f0160209004810192826200015e5760008555620001a9565b82601f106200017957805160ff1916838001178555620001a9565b82800160010185558215620001a9579182015b82811115620001a95782518255916020019190600101906200018c565b50620001b7929150620001bb565b5090565b5b80821115620001b75760008155600101620001bc565b600060208284031215620001e4578081fd5b81516001600160a01b0381168114620001fb578182fd5b9392505050565b6002810460018216806200021757607f821691505b602082108114156200023957634e487b7160e01b600052602260045260246000fd5b50919050565b611af4806200024f6000396000f3fe608060405234801561001057600080fd5b50600436106101165760003560e01c80638da5cb5b116100a2578063c87b56dd11610071578063c87b56dd14610225578063d9b45f9e14610238578063e985e9c51461024b578063eacabe141461025e578063f2fde38b1461027157610116565b80638da5cb5b146101ef57806395d89b41146101f7578063a22cb465146101ff578063b88d4fde1461021257610116565b806323b872dd116100e957806323b872dd1461018e57806342842e0e146101a15780636352211e146101b457806370a08231146101c7578063715018a6146101e757610116565b806301ffc9a71461011b57806306fdde0314610144578063081812fc14610159578063095ea7b314610179575b600080fd5b61012e610129366004611345565b610284565b60405161013b9190611465565b60405180910390f35b61014c6102cc565b60405161013b9190611470565b61016c61016736600461137d565b61035e565b60405161013b91906113f0565b61018c61018736600461131c565b6103aa565b005b61018c61019c3660046111cf565b610442565b61018c6101af3660046111cf565b61047a565b61016c6101c236600461137d565b610495565b6101da6101d5366004611139565b6104ca565b60405161013b9190611984565b61018c61050e565b61016c610559565b61014c610568565b61018c61020d366004611283565b610577565b61018c61022036600461120a565b61058d565b61014c61023336600461137d565b6105cc565b6101da610246366004611185565b6106ed565b61012e610259366004611153565b61075b565b6101da61026c3660046112bd565b610789565b61018c61027f366004611139565b610814565b60006001600160e01b031982166380ac58cd60e01b14806102b557506001600160e01b03198216635b5e139f60e01b145b806102c457506102c482610885565b90505b919050565b6060600080546102db906119fc565b80601f0160208091040260200160405190810160405280929190818152602001828054610307906119fc565b80156103545780601f1061032957610100808354040283529160200191610354565b820191906000526020600020905b81548152906001019060200180831161033757829003601f168201915b5050505050905090565b60006103698261089e565b61038e5760405162461bcd60e51b815260040161038590611822565b60405180910390fd5b506000908152600460205260409020546001600160a01b031690565b60006103b582610495565b9050806001600160a01b0316836001600160a01b031614156103e95760405162461bcd60e51b8152600401610385906118f2565b806001600160a01b03166103fb6108bb565b6001600160a01b031614806104175750610417816102596108bb565b6104335760405162461bcd60e51b81526004016103859061165e565b61043d83836108bf565b505050565b61045361044d6108bb565b8261092d565b61046f5760405162461bcd60e51b815260040161038590611933565b61043d8383836109aa565b61043d8383836040518060200160405280600081525061058d565b6000818152600260205260408120546001600160a01b0316806102c45760405162461bcd60e51b815260040161038590611705565b60006001600160a01b0382166104f25760405162461bcd60e51b8152600401610385906116bb565b506001600160a01b031660009081526003602052604090205490565b6105166108bb565b6001600160a01b0316610527610559565b6001600160a01b03161461054d5760405162461bcd60e51b81526004016103859061186e565b6105576000610add565b565b6007546001600160a01b031690565b6060600180546102db906119fc565b6105896105826108bb565b8383610b2f565b5050565b61059e6105986108bb565b8361092d565b6105ba5760405162461bcd60e51b815260040161038590611933565b6105c684848484610bd2565b50505050565b60606105d78261089e565b6105f35760405162461bcd60e51b8152600401610385906117d1565b6000828152600660205260408120805461060c906119fc565b80601f0160208091040260200160405190810160405280929190818152602001828054610638906119fc565b80156106855780601f1061065a57610100808354040283529160200191610685565b820191906000526020600020905b81548152906001019060200180831161066857829003601f168201915b505050505090506000610696610c05565b90508051600014156106aa575090506102c7565b8151156106dc5780826040516020016106c49291906113c1565b604051602081830303815290604052925050506102c7565b6106e584610c17565b949350505050565b6040516323b872dd60e01b81526000906001600160a01b038616906323b872dd9061072090879087908790600401611404565b600060405180830381600087803b15801561073a57600080fd5b505af115801561074e573d6000803e3d6000fd5b5093979650505050505050565b6001600160a01b03918216600090815260056020908152604080832093909416825291909152205460ff1690565b60006107936108bb565b6001600160a01b03166107a4610559565b6001600160a01b0316146107ca5760405162461bcd60e51b81526004016103859061186e565b6107d46008610c99565b60006107e06008610ca2565b90506107ec8482610ca6565b6107f68184610d8d565b60095461080d906001600160a01b03166001610577565b9392505050565b61081c6108bb565b6001600160a01b031661082d610559565b6001600160a01b0316146108535760405162461bcd60e51b81526004016103859061186e565b6001600160a01b0381166108795760405162461bcd60e51b8152600401610385906114d5565b61088281610add565b50565b6001600160e01b031981166301ffc9a760e01b14919050565b6000908152600260205260409020546001600160a01b0316151590565b3390565b600081815260046020526040902080546001600160a01b0319166001600160a01b03841690811790915581906108f482610495565b6001600160a01b03167f8c5be1e5ebec7d5bd14f71427d1e84f3dd0314c0f7b2291e5b200ac8c7c3b92560405160405180910390a45050565b60006109388261089e565b6109545760405162461bcd60e51b815260040161038590611612565b600061095f83610495565b9050806001600160a01b0316846001600160a01b0316148061099a5750836001600160a01b031661098f8461035e565b6001600160a01b0316145b806106e557506106e5818561075b565b826001600160a01b03166109bd82610495565b6001600160a01b0316146109e35760405162461bcd60e51b81526004016103859061151b565b6001600160a01b038216610a095760405162461bcd60e51b815260040161038590611597565b610a1483838361043d565b610a1f6000826108bf565b6001600160a01b0383166000908152600360205260408120805460019290610a489084906119b9565b90915550506001600160a01b0382166000908152600360205260408120805460019290610a7690849061198d565b909155505060008181526002602052604080822080546001600160a01b0319166001600160a01b0386811691821790925591518493918716917fddf252ad1be2c89b69c2b068fc378daa952ba7f163c4a11628f55a4df523b3ef91a461043d83838361043d565b600780546001600160a01b038381166001600160a01b0319831681179093556040519116919082907f8be0079c531659141344cd1fd0a4f28419497f9722a3daafe3b4186f6b6457e090600090a35050565b816001600160a01b0316836001600160a01b03161415610b615760405162461bcd60e51b8152600401610385906115db565b6001600160a01b0383811660008181526005602090815260408083209487168084529490915290819020805460ff1916851515179055517f17307eab39ab6107e8899845ad3d59bd9653f200f220920489ca2b5937696c3190610bc5908590611465565b60405180910390a3505050565b610bdd8484846109aa565b610be984848484610dd1565b6105c65760405162461bcd60e51b815260040161038590611483565b60408051602081019091526000815290565b6060610c228261089e565b610c3e5760405162461bcd60e51b8152600401610385906118a3565b6000610c48610c05565b90506000815111610c68576040518060200160405280600081525061080d565b80610c7284610ee9565b604051602001610c839291906113c1565b6040516020818303038152906040529392505050565b80546001019055565b5490565b6001600160a01b038216610ccc5760405162461bcd60e51b81526004016103859061179c565b610cd58161089e565b15610cf25760405162461bcd60e51b815260040161038590611560565b610cfe6000838361043d565b6001600160a01b0382166000908152600360205260408120805460019290610d2790849061198d565b909155505060008181526002602052604080822080546001600160a01b0319166001600160a01b03861690811790915590518392907fddf252ad1be2c89b69c2b068fc378daa952ba7f163c4a11628f55a4df523b3ef908290a46105896000838361043d565b610d968261089e565b610db25760405162461bcd60e51b81526004016103859061174e565b6000828152600660209081526040909120825161043d92840190611013565b6000610de5846001600160a01b0316611004565b15610ee157836001600160a01b031663150b7a02610e016108bb565b8786866040518563ffffffff1660e01b8152600401610e239493929190611428565b602060405180830381600087803b158015610e3d57600080fd5b505af1925050508015610e6d575060408051601f3d908101601f19168201909252610e6a91810190611361565b60015b610ec7573d808015610e9b576040519150601f19603f3d011682016040523d82523d6000602084013e610ea0565b606091505b508051610ebf5760405162461bcd60e51b815260040161038590611483565b805181602001fd5b6001600160e01b031916630a85bd0160e11b1490506106e5565b5060016106e5565b606081610f0e57506040805180820190915260018152600360fc1b60208201526102c7565b8160005b8115610f385780610f2281611a37565b9150610f319050600a836119a5565b9150610f12565b60008167ffffffffffffffff811115610f6157634e487b7160e01b600052604160045260246000fd5b6040519080825280601f01601f191660200182016040528015610f8b576020820181803683370190505b5090505b84156106e557610fa06001836119b9565b9150610fad600a86611a52565b610fb890603061198d565b60f81b818381518110610fdb57634e487b7160e01b600052603260045260246000fd5b60200101906001600160f81b031916908160001a905350610ffd600a866119a5565b9450610f8f565b6001600160a01b03163b151590565b82805461101f906119fc565b90600052602060002090601f0160209004810192826110415760008555611087565b82601f1061105a57805160ff1916838001178555611087565b82800160010185558215611087579182015b8281111561108757825182559160200191906001019061106c565b50611093929150611097565b5090565b5b808211156110935760008155600101611098565b600067ffffffffffffffff808411156110c7576110c7611a92565b604051601f8501601f19908116603f011681019082821181831017156110ef576110ef611a92565b8160405280935085815286868601111561110857600080fd5b858560208301376000602087830101525050509392505050565b80356001600160a01b03811681146102c757600080fd5b60006020828403121561114a578081fd5b61080d82611122565b60008060408385031215611165578081fd5b61116e83611122565b915061117c60208401611122565b90509250929050565b6000806000806080858703121561119a578182fd5b6111a385611122565b93506111b160208601611122565b92506111bf60408601611122565b9396929550929360600135925050565b6000806000606084860312156111e3578283fd5b6111ec84611122565b92506111fa60208501611122565b9150604084013590509250925092565b6000806000806080858703121561121f578384fd5b61122885611122565b935061123660208601611122565b925060408501359150606085013567ffffffffffffffff811115611258578182fd5b8501601f81018713611268578182fd5b611277878235602084016110ac565b91505092959194509250565b60008060408385031215611295578182fd5b61129e83611122565b9150602083013580151581146112b2578182fd5b809150509250929050565b600080604083850312156112cf578182fd5b6112d883611122565b9150602083013567ffffffffffffffff8111156112f3578182fd5b8301601f81018513611303578182fd5b611312858235602084016110ac565b9150509250929050565b6000806040838503121561132e578182fd5b61133783611122565b946020939093013593505050565b600060208284031215611356578081fd5b813561080d81611aa8565b600060208284031215611372578081fd5b815161080d81611aa8565b60006020828403121561138e578081fd5b5035919050565b600081518084526113ad8160208601602086016119d0565b601f01601f19169290920160200192915050565b600083516113d38184602088016119d0565b8351908301906113e78183602088016119d0565b01949350505050565b6001600160a01b0391909116815260200190565b6001600160a01b039384168152919092166020820152604081019190915260600190565b6001600160a01b038581168252841660208201526040810183905260806060820181905260009061145b90830184611395565b9695505050505050565b901515815260200190565b60006020825261080d6020830184611395565b60208082526032908201527f4552433732313a207472616e7366657220746f206e6f6e20455243373231526560408201527131b2b4bb32b91034b6b83632b6b2b73a32b960711b606082015260800190565b60208082526026908201527f4f776e61626c653a206e6577206f776e657220697320746865207a65726f206160408201526564647265737360d01b606082015260800190565b60208082526025908201527f4552433732313a207472616e736665722066726f6d20696e636f72726563742060408201526437bbb732b960d91b606082015260800190565b6020808252601c908201527f4552433732313a20746f6b656e20616c7265616479206d696e74656400000000604082015260600190565b60208082526024908201527f4552433732313a207472616e7366657220746f20746865207a65726f206164646040820152637265737360e01b606082015260800190565b60208082526019908201527f4552433732313a20617070726f766520746f2063616c6c657200000000000000604082015260600190565b6020808252602c908201527f4552433732313a206f70657261746f7220717565727920666f72206e6f6e657860408201526b34b9ba32b73a103a37b5b2b760a11b606082015260800190565b60208082526038908201527f4552433732313a20617070726f76652063616c6c6572206973206e6f74206f7760408201527f6e6572206e6f7220617070726f76656420666f7220616c6c0000000000000000606082015260800190565b6020808252602a908201527f4552433732313a2062616c616e636520717565727920666f7220746865207a65604082015269726f206164647265737360b01b606082015260800190565b60208082526029908201527f4552433732313a206f776e657220717565727920666f72206e6f6e657869737460408201526832b73a103a37b5b2b760b91b606082015260800190565b6020808252602e908201527f45524337323155524953746f726167653a2055524920736574206f66206e6f6e60408201526d32bc34b9ba32b73a103a37b5b2b760911b606082015260800190565b6020808252818101527f4552433732313a206d696e7420746f20746865207a65726f2061646472657373604082015260600190565b60208082526031908201527f45524337323155524953746f726167653a2055524920717565727920666f72206040820152703737b732bc34b9ba32b73a103a37b5b2b760791b606082015260800190565b6020808252602c908201527f4552433732313a20617070726f76656420717565727920666f72206e6f6e657860408201526b34b9ba32b73a103a37b5b2b760a11b606082015260800190565b6020808252818101527f4f776e61626c653a2063616c6c6572206973206e6f7420746865206f776e6572604082015260600190565b6020808252602f908201527f4552433732314d657461646174613a2055524920717565727920666f72206e6f60408201526e3732bc34b9ba32b73a103a37b5b2b760891b606082015260800190565b60208082526021908201527f4552433732313a20617070726f76616c20746f2063757272656e74206f776e656040820152603960f91b606082015260800190565b60208082526031908201527f4552433732313a207472616e736665722063616c6c6572206973206e6f74206f6040820152701ddb995c881b9bdc88185c1c1c9bdd9959607a1b606082015260800190565b90815260200190565b600082198211156119a0576119a0611a66565b500190565b6000826119b4576119b4611a7c565b500490565b6000828210156119cb576119cb611a66565b500390565b60005b838110156119eb5781810151838201526020016119d3565b838111156105c65750506000910152565b600281046001821680611a1057607f821691505b60208210811415611a3157634e487b7160e01b600052602260045260246000fd5b50919050565b6000600019821415611a4b57611a4b611a66565b5060010190565b600082611a6157611a61611a7c565b500690565b634e487b7160e01b600052601160045260246000fd5b634e487b7160e01b600052601260045260246000fd5b634e487b7160e01b600052604160045260246000fd5b6001600160e01b03198116811461088257600080fdfea2646970667358221220a7cdafad88d93c5b05e093b77d34ffb9dcd706e43d75d1396a3faef8bf04483864736f6c63430008010033",
  "immutableReferences": {},
  "source": "//Contract based on [https://docs.openzeppelin.com/contracts/3.x/erc721](https://docs.openzeppelin.com/contracts/3.x/erc721)\n// SPDX-License-Identifier: MIT\n\npragma solidity ^0.8.0;\n\n\nimport \"@openzeppelin/contracts/token/ERC721/ERC721.sol\";\nimport \"@openzeppelin/contracts/utils/Counters.sol\";\nimport \"@openzeppelin/contracts/access/Ownable.sol\";\nimport \"@openzeppelin/contracts/token/ERC721/extensions/ERC721URIStorage.sol\";\n\n\ncontract mintNft is ERC721URIStorage, Ownable {\n    using Counters for Counters.Counter;\n    Counters.Counter private _tokenIds;\n    address contractAddress;\n\n    constructor(address Marketplace) ERC721(\"Eirbee\", \"ERB\") {\n        contractAddress = Marketplace;\n    }\n\n    function mintNFT(address recipient, string memory tokenURI) public onlyOwner returns (uint256) {\n        _tokenIds.increment();\n\n        uint256 newItemId = _tokenIds.current();\n        _mint(recipient, newItemId);\n        _setTokenURI(newItemId, tokenURI);\n        // approve(contractAddress, newItemId);\n        setApprovalForAll(contractAddress, true);\n\n        return newItemId;\n    }\n\n    function sendNft(address nftContract, address _from, address _to, uint tokenId) public returns (uint256) {\n        IERC721(nftContract).transferFrom(_from, _to, tokenId);\n        return tokenId;\n    }\n}\n\n",
  "sourcePath": "/Users/guillaume/Documents/cours/Enseirb/2A/S8/Projet Eirbmon/code/eirbmon/eirbmon/blockchain/contracts/mintNft.sol",
  "compiler": {
    "name": "solc",
    "version": "0.8.1+commit.df193b15.Emscripten.clang"
  },
  "schemaVersion": "3.4.3",
  "updatedAt": "2022-04-14T08:23:47.178Z",
  "networkType": "ethereum",
  "devdoc": {
    "kind": "dev",
    "methods": {
      "approve(address,uint256)": {
        "details": "See {IERC721-approve}."
      },
      "balanceOf(address)": {
        "details": "See {IERC721-balanceOf}."
      },
      "getApproved(uint256)": {
        "details": "See {IERC721-getApproved}."
      },
      "isApprovedForAll(address,address)": {
        "details": "See {IERC721-isApprovedForAll}."
      },
      "name()": {
        "details": "See {IERC721Metadata-name}."
      },
      "owner()": {
        "details": "Returns the address of the current owner."
      },
      "ownerOf(uint256)": {
        "details": "See {IERC721-ownerOf}."
      },
      "renounceOwnership()": {
        "details": "Leaves the contract without owner. It will not be possible to call `onlyOwner` functions anymore. Can only be called by the current owner. NOTE: Renouncing ownership will leave the contract without an owner, thereby removing any functionality that is only available to the owner."
      },
      "safeTransferFrom(address,address,uint256)": {
        "details": "See {IERC721-safeTransferFrom}."
      },
      "safeTransferFrom(address,address,uint256,bytes)": {
        "details": "See {IERC721-safeTransferFrom}."
      },
      "setApprovalForAll(address,bool)": {
        "details": "See {IERC721-setApprovalForAll}."
      },
      "supportsInterface(bytes4)": {
        "details": "See {IERC165-supportsInterface}."
      },
      "symbol()": {
        "details": "See {IERC721Metadata-symbol}."
      },
      "tokenURI(uint256)": {
        "details": "See {IERC721Metadata-tokenURI}."
      },
      "transferFrom(address,address,uint256)": {
        "details": "See {IERC721-transferFrom}."
      },
      "transferOwnership(address)": {
        "details": "Transfers ownership of the contract to a new account (`newOwner`). Can only be called by the current owner."
      }
    },
    "version": 1
  },
  "userdoc": {
    "kind": "user",
    "methods": {},
    "version": 1
  }
}