{
  "contractName": "NFTMarketplace",
  "abi": [
    {
      "inputs": [],
      "stateMutability": "nonpayable",
      "type": "constructor"
    },
    {
      "anonymous": false,
      "inputs": [
        {
          "indexed": true,
          "internalType": "uint256",
          "name": "itemId",
          "type": "uint256"
        },
        {
          "indexed": true,
          "internalType": "address",
          "name": "nftContract",
          "type": "address"
        },
        {
          "indexed": true,
          "internalType": "uint256",
          "name": "tokenId",
          "type": "uint256"
        },
        {
          "indexed": false,
          "internalType": "address",
          "name": "seller",
          "type": "address"
        },
        {
          "indexed": false,
          "internalType": "address",
          "name": "owner",
          "type": "address"
        },
        {
          "indexed": false,
          "internalType": "uint256",
          "name": "price",
          "type": "uint256"
        },
        {
          "indexed": false,
          "internalType": "bool",
          "name": "sold",
          "type": "bool"
        }
      ],
      "name": "MarketItemCreated",
      "type": "event"
    },
    {
      "inputs": [
        {
          "internalType": "address",
          "name": "nftContract",
          "type": "address"
        },
        {
          "internalType": "uint256",
          "name": "tokenId",
          "type": "uint256"
        },
        {
          "internalType": "uint256",
          "name": "price",
          "type": "uint256"
        }
      ],
      "name": "addNftInMarketplace",
      "outputs": [],
      "stateMutability": "payable",
      "type": "function",
      "payable": true
    },
    {
      "inputs": [
        {
          "internalType": "address",
          "name": "nftContract",
          "type": "address"
        },
        {
          "internalType": "uint256",
          "name": "itemId",
          "type": "uint256"
        }
      ],
      "name": "buyNftInMarketplace",
      "outputs": [],
      "stateMutability": "payable",
      "type": "function",
      "payable": true
    },
    {
      "inputs": [],
      "name": "fetchMarketItems",
      "outputs": [
        {
          "components": [
            {
              "internalType": "uint256",
              "name": "itemId",
              "type": "uint256"
            },
            {
              "internalType": "address",
              "name": "nftContract",
              "type": "address"
            },
            {
              "internalType": "uint256",
              "name": "tokenId",
              "type": "uint256"
            },
            {
              "internalType": "address payable",
              "name": "seller",
              "type": "address"
            },
            {
              "internalType": "address payable",
              "name": "owner",
              "type": "address"
            },
            {
              "internalType": "uint256",
              "name": "price",
              "type": "uint256"
            },
            {
              "internalType": "bool",
              "name": "sold",
              "type": "bool"
            }
          ],
          "internalType": "struct NFTMarketplace.MarketItem[]",
          "name": "",
          "type": "tuple[]"
        }
      ],
      "stateMutability": "view",
      "type": "function",
      "constant": true
    },
    {
      "inputs": [],
      "name": "fetchMyNFTs",
      "outputs": [
        {
          "components": [
            {
              "internalType": "uint256",
              "name": "itemId",
              "type": "uint256"
            },
            {
              "internalType": "address",
              "name": "nftContract",
              "type": "address"
            },
            {
              "internalType": "uint256",
              "name": "tokenId",
              "type": "uint256"
            },
            {
              "internalType": "address payable",
              "name": "seller",
              "type": "address"
            },
            {
              "internalType": "address payable",
              "name": "owner",
              "type": "address"
            },
            {
              "internalType": "uint256",
              "name": "price",
              "type": "uint256"
            },
            {
              "internalType": "bool",
              "name": "sold",
              "type": "bool"
            }
          ],
          "internalType": "struct NFTMarketplace.MarketItem[]",
          "name": "",
          "type": "tuple[]"
        }
      ],
      "stateMutability": "view",
      "type": "function",
      "constant": true
    },
    {
      "inputs": [],
      "name": "fetchItemsCreated",
      "outputs": [
        {
          "components": [
            {
              "internalType": "uint256",
              "name": "itemId",
              "type": "uint256"
            },
            {
              "internalType": "address",
              "name": "nftContract",
              "type": "address"
            },
            {
              "internalType": "uint256",
              "name": "tokenId",
              "type": "uint256"
            },
            {
              "internalType": "address payable",
              "name": "seller",
              "type": "address"
            },
            {
              "internalType": "address payable",
              "name": "owner",
              "type": "address"
            },
            {
              "internalType": "uint256",
              "name": "price",
              "type": "uint256"
            },
            {
              "internalType": "bool",
              "name": "sold",
              "type": "bool"
            }
          ],
          "internalType": "struct NFTMarketplace.MarketItem[]",
          "name": "",
          "type": "tuple[]"
        }
      ],
      "stateMutability": "view",
      "type": "function",
      "constant": true
    }
  ],
  "bytecode": "0x608060405234801561001057600080fd5b50600160008190555033600360006101000a81548173ffffffffffffffffffffffffffffffffffffffff021916908373ffffffffffffffffffffffffffffffffffffffff1602179055506117db806100696000396000f3fe60806040526004361061004a5760003560e01c80630f08efe01461004f57806316a4d1df1461007a578063202e374014610096578063bd774059146100c1578063f064c32e146100dd575b600080fd5b34801561005b57600080fd5b50610064610108565b60405161007191906114ae565b60405180910390f35b610094600480360381019061008f919061120d565b610434565b005b3480156100a257600080fd5b506100ab610754565b6040516100b891906114ae565b60405180910390f35b6100db60048036038101906100d691906111d1565b610b04565b005b3480156100e957600080fd5b506100f2610d52565b6040516100ff91906114ae565b60405180910390f35b606060006101166001611102565b905060006101246002611102565b61012e6001611102565b61013891906115d0565b90506000808267ffffffffffffffff81111561017d577f4e487b7100000000000000000000000000000000000000000000000000000000600052604160045260246000fd5b6040519080825280602002602001820160405280156101b657816020015b6101a3611126565b81526020019060019003908161019b5790505b50905060005b8481101561042957600073ffffffffffffffffffffffffffffffffffffffff16600460006001846101ed919061157a565b815260200190815260200160002060040160009054906101000a900473ffffffffffffffffffffffffffffffffffffffff1673ffffffffffffffffffffffffffffffffffffffff1614156104165760006004600060018461024e919061157a565b81526020019081526020016000206000015490506000600460008381526020019081526020016000209050806040518060e0016040529081600082015481526020016001820160009054906101000a900473ffffffffffffffffffffffffffffffffffffffff1673ffffffffffffffffffffffffffffffffffffffff1673ffffffffffffffffffffffffffffffffffffffff168152602001600282015481526020016003820160009054906101000a900473ffffffffffffffffffffffffffffffffffffffff1673ffffffffffffffffffffffffffffffffffffffff1673ffffffffffffffffffffffffffffffffffffffff1681526020016004820160009054906101000a900473ffffffffffffffffffffffffffffffffffffffff1673ffffffffffffffffffffffffffffffffffffffff1673ffffffffffffffffffffffffffffffffffffffff168152602001600582015481526020016006820160009054906101000a900460ff1615151515815250508486815181106103f9577f4e487b7100000000000000000000000000000000000000000000000000000000600052603260045260246000fd5b6020026020010181905250600185610411919061157a565b945050505b80806104219061165e565b9150506101bc565b508094505050505090565b6002600054141561047a576040517f08c379a0000000000000000000000000000000000000000000000000000000008152600401610471906114f0565b60405180910390fd5b6002600081905550600081116104c5576040517f08c379a00000000000000000000000000000000000000000000000000000000081526004016104bc90611510565b60405180910390fd5b6104cf6001611110565b60006104db6001611102565b90506040518060e001604052808281526020018573ffffffffffffffffffffffffffffffffffffffff1681526020018481526020013373ffffffffffffffffffffffffffffffffffffffff168152602001600073ffffffffffffffffffffffffffffffffffffffff16815260200183815260200160001515815250600460008381526020019081526020016000206000820151816000015560208201518160010160006101000a81548173ffffffffffffffffffffffffffffffffffffffff021916908373ffffffffffffffffffffffffffffffffffffffff1602179055506040820151816002015560608201518160030160006101000a81548173ffffffffffffffffffffffffffffffffffffffff021916908373ffffffffffffffffffffffffffffffffffffffff16021790555060808201518160040160006101000a81548173ffffffffffffffffffffffffffffffffffffffff021916908373ffffffffffffffffffffffffffffffffffffffff16021790555060a0820151816005015560c08201518160060160006101000a81548160ff0219169083151502179055509050508373ffffffffffffffffffffffffffffffffffffffff166323b872dd3330866040518463ffffffff1660e01b81526004016106bc93929190611432565b600060405180830381600087803b1580156106d657600080fd5b505af11580156106ea573d6000803e3d6000fd5b50505050828473ffffffffffffffffffffffffffffffffffffffff16827f045dfa01dcba2b36aba1d3dc4a874f4b0c5d2fbeb8d2c4b34a7d88c8d8f929d133600087600060405161073e9493929190611469565b60405180910390a4506001600081905550505050565b606060006107626001611102565b905060008060005b8381101561080b573373ffffffffffffffffffffffffffffffffffffffff166004600060018461079a919061157a565b815260200190815260200160002060040160009054906101000a900473ffffffffffffffffffffffffffffffffffffffff1673ffffffffffffffffffffffffffffffffffffffff1614156107f8576001836107f5919061157a565b92505b80806108039061165e565b91505061076a565b5060008267ffffffffffffffff81111561084e577f4e487b7100000000000000000000000000000000000000000000000000000000600052604160045260246000fd5b60405190808252806020026020018201604052801561088757816020015b610874611126565b81526020019060019003908161086c5790505b50905060005b84811015610af9573373ffffffffffffffffffffffffffffffffffffffff16600460006001846108bd919061157a565b815260200190815260200160002060040160009054906101000a900473ffffffffffffffffffffffffffffffffffffffff1673ffffffffffffffffffffffffffffffffffffffff161415610ae65760006004600060018461091e919061157a565b81526020019081526020016000206000015490506000600460008381526020019081526020016000209050806040518060e0016040529081600082015481526020016001820160009054906101000a900473ffffffffffffffffffffffffffffffffffffffff1673ffffffffffffffffffffffffffffffffffffffff1673ffffffffffffffffffffffffffffffffffffffff168152602001600282015481526020016003820160009054906101000a900473ffffffffffffffffffffffffffffffffffffffff1673ffffffffffffffffffffffffffffffffffffffff1673ffffffffffffffffffffffffffffffffffffffff1681526020016004820160009054906101000a900473ffffffffffffffffffffffffffffffffffffffff1673ffffffffffffffffffffffffffffffffffffffff1673ffffffffffffffffffffffffffffffffffffffff168152602001600582015481526020016006820160009054906101000a900460ff161515151581525050848681518110610ac9577f4e487b7100000000000000000000000000000000000000000000000000000000600052603260045260246000fd5b6020026020010181905250600185610ae1919061157a565b945050505b8080610af19061165e565b91505061088d565b508094505050505090565b60026000541415610b4a576040517f08c379a0000000000000000000000000000000000000000000000000000000008152600401610b41906114f0565b60405180910390fd5b6002600081905550600060046000838152602001908152602001600020600501549050600060046000848152602001908152602001600020600201549050813414610bca576040517f08c379a0000000000000000000000000000000000000000000000000000000008152600401610bc1906114d0565b60405180910390fd5b6004600084815260200190815260200160002060030160009054906101000a900473ffffffffffffffffffffffffffffffffffffffff1673ffffffffffffffffffffffffffffffffffffffff166108fc349081150290604051600060405180830381858888f19350505050158015610c46573d6000803e3d6000fd5b508373ffffffffffffffffffffffffffffffffffffffff166323b872dd3033846040518463ffffffff1660e01b8152600401610c8493929190611432565b600060405180830381600087803b158015610c9e57600080fd5b505af1158015610cb2573d6000803e3d6000fd5b50505050336004600085815260200190815260200160002060040160006101000a81548173ffffffffffffffffffffffffffffffffffffffff021916908373ffffffffffffffffffffffffffffffffffffffff16021790555060016004600085815260200190815260200160002060060160006101000a81548160ff021916908315150217905550610d446002611110565b505060016000819055505050565b60606000610d606001611102565b905060008060005b83811015610e09573373ffffffffffffffffffffffffffffffffffffffff1660046000600184610d98919061157a565b815260200190815260200160002060030160009054906101000a900473ffffffffffffffffffffffffffffffffffffffff1673ffffffffffffffffffffffffffffffffffffffff161415610df657600183610df3919061157a565b92505b8080610e019061165e565b915050610d68565b5060008267ffffffffffffffff811115610e4c577f4e487b7100000000000000000000000000000000000000000000000000000000600052604160045260246000fd5b604051908082528060200260200182016040528015610e8557816020015b610e72611126565b815260200190600190039081610e6a5790505b50905060005b848110156110f7573373ffffffffffffffffffffffffffffffffffffffff1660046000600184610ebb919061157a565b815260200190815260200160002060030160009054906101000a900473ffffffffffffffffffffffffffffffffffffffff1673ffffffffffffffffffffffffffffffffffffffff1614156110e457600060046000600184610f1c919061157a565b81526020019081526020016000206000015490506000600460008381526020019081526020016000209050806040518060e0016040529081600082015481526020016001820160009054906101000a900473ffffffffffffffffffffffffffffffffffffffff1673ffffffffffffffffffffffffffffffffffffffff1673ffffffffffffffffffffffffffffffffffffffff168152602001600282015481526020016003820160009054906101000a900473ffffffffffffffffffffffffffffffffffffffff1673ffffffffffffffffffffffffffffffffffffffff1673ffffffffffffffffffffffffffffffffffffffff1681526020016004820160009054906101000a900473ffffffffffffffffffffffffffffffffffffffff1673ffffffffffffffffffffffffffffffffffffffff1673ffffffffffffffffffffffffffffffffffffffff168152602001600582015481526020016006820160009054906101000a900460ff1615151515815250508486815181106110c7577f4e487b7100000000000000000000000000000000000000000000000000000000600052603260045260246000fd5b60200260200101819052506001856110df919061157a565b945050505b80806110ef9061165e565b915050610e8b565b508094505050505090565b600081600001549050919050565b6001816000016000828254019250508190555050565b6040518060e0016040528060008152602001600073ffffffffffffffffffffffffffffffffffffffff16815260200160008152602001600073ffffffffffffffffffffffffffffffffffffffff168152602001600073ffffffffffffffffffffffffffffffffffffffff168152602001600081526020016000151581525090565b6000813590506111b681611777565b92915050565b6000813590506111cb8161178e565b92915050565b600080604083850312156111e457600080fd5b60006111f2858286016111a7565b9250506020611203858286016111bc565b9150509250929050565b60008060006060848603121561122257600080fd5b6000611230868287016111a7565b9350506020611241868287016111bc565b9250506040611252868287016111bc565b9150509250925092565b60006112688383611386565b60e08301905092915050565b61127d81611616565b82525050565b61128c81611604565b82525050565b61129b81611604565b82525050565b60006112ac82611540565b6112b68185611558565b93506112c183611530565b8060005b838110156112f25781516112d9888261125c565b97506112e48361154b565b9250506001810190506112c5565b5085935050505092915050565b61130881611628565b82525050565b61131781611628565b82525050565b600061132a604083611569565b9150611335826116d6565b604082019050919050565b600061134d601f83611569565b915061135882611725565b602082019050919050565b6000611370601c83611569565b915061137b8261174e565b602082019050919050565b60e08201600082015161139c6000850182611414565b5060208201516113af6020850182611283565b5060408201516113c26040850182611414565b5060608201516113d56060850182611274565b5060808201516113e86080850182611274565b5060a08201516113fb60a0850182611414565b5060c082015161140e60c08501826112ff565b50505050565b61141d81611654565b82525050565b61142c81611654565b82525050565b60006060820190506114476000830186611292565b6114546020830185611292565b6114616040830184611423565b949350505050565b600060808201905061147e6000830187611292565b61148b6020830186611292565b6114986040830185611423565b6114a5606083018461130e565b95945050505050565b600060208201905081810360008301526114c881846112a1565b905092915050565b600060208201905081810360008301526114e98161131d565b9050919050565b6000602082019050818103600083015261150981611340565b9050919050565b6000602082019050818103600083015261152981611363565b9050919050565b6000819050602082019050919050565b600081519050919050565b6000602082019050919050565b600082825260208201905092915050565b600082825260208201905092915050565b600061158582611654565b915061159083611654565b9250827fffffffffffffffffffffffffffffffffffffffffffffffffffffffffffffffff038211156115c5576115c46116a7565b5b828201905092915050565b60006115db82611654565b91506115e683611654565b9250828210156115f9576115f86116a7565b5b828203905092915050565b600061160f82611634565b9050919050565b600061162182611634565b9050919050565b60008115159050919050565b600073ffffffffffffffffffffffffffffffffffffffff82169050919050565b6000819050919050565b600061166982611654565b91507fffffffffffffffffffffffffffffffffffffffffffffffffffffffffffffffff82141561169c5761169b6116a7565b5b600182019050919050565b7f4e487b7100000000000000000000000000000000000000000000000000000000600052601160045260246000fd5b7f506c65617365207375626d6974207468652061736b696e67207072696365206960008201527f6e206f7264657220746f20636f6d706c65746520746865207075726368617365602082015250565b7f5265656e7472616e637947756172643a207265656e7472616e742063616c6c00600082015250565b7f5072696365206d757374206265206174206c6561737420312077656900000000600082015250565b61178081611604565b811461178b57600080fd5b50565b61179781611654565b81146117a257600080fd5b5056fea26469706673582212200094aab9d4dc61d7f60a473e319baa7c8ecea399b0964d4f5ee43ffe3438e0cc64736f6c63430008010033",
  "immutableReferences": {},
  "source": "//Contract based on [https://docs.openzeppelin.com/contracts/3.x/erc721](https://docs.openzeppelin.com/contracts/3.x/erc721)\n// SPDX-License-Identifier: MIT\n\npragma solidity ^0.8.0;\n\n\nimport \"@openzeppelin/contracts/token/ERC721/ERC721.sol\";\nimport \"@openzeppelin/contracts/utils/Counters.sol\";\nimport \"@openzeppelin/contracts/security/ReentrancyGuard.sol\";\n\n\ncontract NFTMarketplace is ReentrancyGuard {\n    using Counters for Counters.Counter;\n    Counters.Counter private _itemIds;\n    Counters.Counter private _itemsSold;\n\n    address payable owner;\n\n    constructor() {\n        owner = payable(msg.sender);\n    }\n\n    struct MarketItem {\n        uint itemId;\n        address nftContract;\n        uint tokenId;\n        address payable seller;\n        address payable owner;\n        uint256 price;\n        bool sold;\n    }\n\n    mapping(uint256 => MarketItem) private idToMarketItem;\n\n    event MarketItemCreated (\n        uint indexed itemId,\n        address indexed nftContract,\n        uint indexed tokenId,\n        address seller,\n        address owner,\n        uint256 price,\n        bool sold\n    );\n\n    // take a nft and put it on the marketplace\n    function addNftInMarketplace(address nftContract, uint256 tokenId, uint256 price)\n    public payable nonReentrant {\n        require(price > 0, \"Price must be at least 1 wei\");\n\n        _itemIds.increment();\n        uint256 itemId = _itemIds.current();\n\n        idToMarketItem[itemId] = MarketItem(\n            itemId,\n            nftContract,\n            tokenId,\n            payable(msg.sender),\n            payable(address(0)),\n            price,\n            false\n        );\n\n        IERC721(nftContract).transferFrom(msg.sender, address(this), tokenId);\n\n        emit MarketItemCreated(\n            itemId,\n            nftContract,\n            tokenId,\n            msg.sender,\n            address(0),\n            price,\n            false\n        );\n    }\n\n// Buy Nft in marketplace\n    function buyNftInMarketplace(address nftContract, uint256 itemId) \n    public payable nonReentrant {\n        uint price = idToMarketItem[itemId].price;\n        uint tokenId = idToMarketItem[itemId].tokenId;\n    \n        require(msg.value == price, \"Please submit the asking price in order to complete the purchase\");\n\n        idToMarketItem[itemId].seller.transfer(msg.value);\n        IERC721(nftContract).transferFrom(address(this), msg.sender, tokenId);\n        idToMarketItem[itemId].owner = payable(msg.sender);\n        idToMarketItem[itemId].sold = true;\n        _itemsSold.increment();\n    }\n\n// Fetch Nfts put on Marketplace\n    function fetchMarketItems() public view returns (MarketItem[] memory) {\n        uint itemCount = _itemIds.current();\n        uint unsoldItemCount = _itemIds.current() - _itemsSold.current();\n        uint currentIndex = 0;\n\n        MarketItem[] memory items = new MarketItem[](unsoldItemCount);\n        for (uint i = 0; i < itemCount; i++)     {\n            if(idToMarketItem[i + 1].owner == address(0)) {\n                uint currentId = idToMarketItem[i + 1].itemId;\n                MarketItem storage currentItem = idToMarketItem[currentId];\n                items[currentIndex] = currentItem;\n                currentIndex += 1;\n            }\n        }\n        return items;\n    }\n\n// Fetch Nfts I bought on marketplace\n    function fetchMyNFTs() public view returns (MarketItem[] memory) {\n        uint totalItemCount = _itemIds.current();\n        uint itemCount = 0;\n        uint currentIndex = 0;\n\n        for (uint i = 0; i < totalItemCount; i++)     {\n            if(idToMarketItem[i + 1].owner == msg.sender) {\n                itemCount += 1;\n            }\n        }\n\n        MarketItem[] memory items = new MarketItem[](itemCount);\n        for (uint i = 0; i < totalItemCount; i++)     {\n            if(idToMarketItem[i + 1].owner == msg.sender) {\n                uint currentId = idToMarketItem[i + 1].itemId;\n                MarketItem storage currentItem = idToMarketItem[currentId];\n                items[currentIndex] = currentItem;\n                currentIndex += 1;\n            }\n        }\n        return items;\n    }\n\n// Fetch nfts I put on Marketplace\n    function fetchItemsCreated() public view returns (MarketItem[] memory) {\n        uint totalItemCount = _itemIds.current();\n        uint itemCount = 0;\n        uint currentIndex = 0;\n\n        for (uint i = 0; i < totalItemCount; i++)     {\n            if(idToMarketItem[i + 1].seller == msg.sender) {\n                itemCount += 1;\n            }\n        }\n\n        MarketItem[] memory items = new MarketItem[](itemCount);\n        for (uint i = 0; i < totalItemCount; i++)     {\n            if(idToMarketItem[i + 1].seller == msg.sender) {\n                uint currentId = idToMarketItem[i + 1].itemId;\n                MarketItem storage currentItem = idToMarketItem[currentId];\n                items[currentIndex] = currentItem;\n                currentIndex += 1;\n            }\n        }\n        return items;\n    }\n\n\n\n\n\n\n}\n  ",
  "sourcePath": "/Users/guillaume/Documents/cours/Enseirb/2A/S8/Projet Eirbmon/code/BlockChain/truffle-alchemy/contracts/Marketplace.sol",
  "compiler": {
    "name": "solc",
    "version": "0.8.1+commit.df193b15.Emscripten.clang"
  },
  "schemaVersion": "3.4.3",
  "updatedAt": "2022-04-07T10:13:43.350Z",
  "networkType": "ethereum",
  "devdoc": {
    "kind": "dev",
    "methods": {},
    "version": 1
  },
  "userdoc": {
    "kind": "user",
    "methods": {},
    "version": 1
  }
}