{
  "contractName": "NFTMarketplace",
  "abi": [
    {
      "inputs": [],
      "stateMutability": "nonpayable",
      "type": "constructor"
    },
    {
      "anonymous": false,
      "inputs": [
        {
          "indexed": true,
          "internalType": "uint256",
          "name": "itemId",
          "type": "uint256"
        },
        {
          "indexed": true,
          "internalType": "address",
          "name": "nftContract",
          "type": "address"
        },
        {
          "indexed": true,
          "internalType": "uint256",
          "name": "tokenId",
          "type": "uint256"
        },
        {
          "indexed": false,
          "internalType": "address",
          "name": "seller",
          "type": "address"
        },
        {
          "indexed": false,
          "internalType": "address",
          "name": "owner",
          "type": "address"
        },
        {
          "indexed": false,
          "internalType": "uint256",
          "name": "price",
          "type": "uint256"
        },
        {
          "indexed": false,
          "internalType": "bool",
          "name": "sold",
          "type": "bool"
        }
      ],
      "name": "MarketItemCreated",
      "type": "event"
    },
    {
      "inputs": [
        {
          "internalType": "address",
          "name": "nftContract",
          "type": "address"
        },
        {
          "internalType": "uint256",
          "name": "tokenId",
          "type": "uint256"
        },
        {
          "internalType": "uint256",
          "name": "price",
          "type": "uint256"
        }
      ],
      "name": "addNftInMarketplace",
      "outputs": [],
      "stateMutability": "payable",
      "type": "function",
      "payable": true
    },
    {
      "inputs": [
        {
          "internalType": "address",
          "name": "nftContract",
          "type": "address"
        },
        {
          "internalType": "uint256",
          "name": "itemId",
          "type": "uint256"
        }
      ],
      "name": "buyNftInMarketplace",
      "outputs": [],
      "stateMutability": "payable",
      "type": "function",
      "payable": true
    },
    {
      "inputs": [],
      "name": "fetchMarketItems",
      "outputs": [
        {
          "components": [
            {
              "internalType": "uint256",
              "name": "itemId",
              "type": "uint256"
            },
            {
              "internalType": "address",
              "name": "nftContract",
              "type": "address"
            },
            {
              "internalType": "uint256",
              "name": "tokenId",
              "type": "uint256"
            },
            {
              "internalType": "address payable",
              "name": "seller",
              "type": "address"
            },
            {
              "internalType": "address payable",
              "name": "owner",
              "type": "address"
            },
            {
              "internalType": "uint256",
              "name": "price",
              "type": "uint256"
            },
            {
              "internalType": "bool",
              "name": "sold",
              "type": "bool"
            }
          ],
          "internalType": "struct NFTMarketplace.MarketItem[]",
          "name": "",
          "type": "tuple[]"
        }
      ],
      "stateMutability": "view",
      "type": "function",
      "constant": true
    },
    {
      "inputs": [],
      "name": "fetchMyNFTs",
      "outputs": [
        {
          "components": [
            {
              "internalType": "uint256",
              "name": "itemId",
              "type": "uint256"
            },
            {
              "internalType": "address",
              "name": "nftContract",
              "type": "address"
            },
            {
              "internalType": "uint256",
              "name": "tokenId",
              "type": "uint256"
            },
            {
              "internalType": "address payable",
              "name": "seller",
              "type": "address"
            },
            {
              "internalType": "address payable",
              "name": "owner",
              "type": "address"
            },
            {
              "internalType": "uint256",
              "name": "price",
              "type": "uint256"
            },
            {
              "internalType": "bool",
              "name": "sold",
              "type": "bool"
            }
          ],
          "internalType": "struct NFTMarketplace.MarketItem[]",
          "name": "",
          "type": "tuple[]"
        }
      ],
      "stateMutability": "view",
      "type": "function",
      "constant": true
    },
    {
      "inputs": [],
      "name": "fetchItemsCreated",
      "outputs": [
        {
          "components": [
            {
              "internalType": "uint256",
              "name": "itemId",
              "type": "uint256"
            },
            {
              "internalType": "address",
              "name": "nftContract",
              "type": "address"
            },
            {
              "internalType": "uint256",
              "name": "tokenId",
              "type": "uint256"
            },
            {
              "internalType": "address payable",
              "name": "seller",
              "type": "address"
            },
            {
              "internalType": "address payable",
              "name": "owner",
              "type": "address"
            },
            {
              "internalType": "uint256",
              "name": "price",
              "type": "uint256"
            },
            {
              "internalType": "bool",
              "name": "sold",
              "type": "bool"
            }
          ],
          "internalType": "struct NFTMarketplace.MarketItem[]",
          "name": "",
          "type": "tuple[]"
        }
      ],
      "stateMutability": "view",
      "type": "function",
      "constant": true
    }
  ],
  "bytecode": "0x608060405234801561001057600080fd5b506001600055600380546001600160a01b03191633179055610ca6806100376000396000f3fe60806040526004361061004a5760003560e01c80630f08efe01461004f57806316a4d1df1461007a578063202e37401461008f578063bd774059146100a4578063f064c32e146100b7575b600080fd5b34801561005b57600080fd5b506100646100cc565b6040516100719190610ab0565b60405180910390f35b61008d610088366004610a31565b610290565b005b34801561009b57600080fd5b50610064610461565b61008d6100b2366004610a08565b61065b565b3480156100c357600080fd5b506100646107aa565b606060006100da60016109a4565b905060006100e860026109a4565b6100f260016109a4565b6100fc9190610c28565b90506000808267ffffffffffffffff81111561012857634e487b7160e01b600052604160045260246000fd5b60405190808252806020026020018201604052801561016157816020015b61014e6109b5565b8152602001906001900390816101465790505b50905060005b8481101561028757600060048161017f846001610c10565b81526020810191909152604001600020600401546001600160a01b031614156102755760006004816101b2846001610c10565b81526020808201929092526040908101600090812054808252600480855291839020835160e0810185528154815260018201546001600160a01b0390811696820196909652600282015494810194909452600381015485166060850152918201549093166080830152600581015460a0830152600681015460ff16151560c083015285519293509185908790811061025a57634e487b7160e01b600052603260045260246000fd5b6020908102919091010152610270600186610c10565b945050505b8061027f81610c3f565b915050610167565b50935050505090565b600260005414156102bc5760405162461bcd60e51b81526004016102b390610ba2565b60405180910390fd5b6002600055806102de5760405162461bcd60e51b81526004016102b390610bd9565b6102e860016109ac565b60006102f460016109a4565b6040805160e0810182528281526001600160a01b0380881660208084018281528486018a8152336060870181815260006080890181815260a08a018e815260c08b018381528d8452600498899052928c90209a518b55955160018b018054918b166001600160a01b0319928316179055945160028b0155915160038a018054918a16918616919091179055905188860180549190981693169290921790955590516005860155516006909401805494151560ff199095169490941790935592516323b872dd60e01b815293945091926323b872dd926103d99290913091899101610a63565b600060405180830381600087803b1580156103f357600080fd5b505af1158015610407573d6000803e3d6000fd5b5050505082846001600160a01b0316827f045dfa01dcba2b36aba1d3dc4a874f4b0c5d2fbeb8d2c4b34a7d88c8d8f929d133600087600060405161044e9493929190610a87565b60405180910390a4505060016000555050565b6060600061046f60016109a4565b905060008060005b838110156104d257336004600061048f846001610c10565b81526020810191909152604001600020600401546001600160a01b031614156104c0576104bd600184610c10565b92505b806104ca81610c3f565b915050610477565b5060008267ffffffffffffffff8111156104fc57634e487b7160e01b600052604160045260246000fd5b60405190808252806020026020018201604052801561053557816020015b6105226109b5565b81526020019060019003908161051a5790505b50905060005b84811015610287573360046000610553846001610c10565b81526020810191909152604001600020600401546001600160a01b03161415610649576000600481610586846001610c10565b81526020808201929092526040908101600090812054808252600480855291839020835160e0810185528154815260018201546001600160a01b0390811696820196909652600282015494810194909452600381015485166060850152918201549093166080830152600581015460a0830152600681015460ff16151560c083015285519293509185908790811061062e57634e487b7160e01b600052603260045260246000fd5b6020908102919091010152610644600186610c10565b945050505b8061065381610c3f565b91505061053b565b6002600054141561067e5760405162461bcd60e51b81526004016102b390610ba2565b6002600081815582815260046020526040902060058101549101543482146106b85760405162461bcd60e51b81526004016102b390610b44565b6000838152600460205260408082206003015490516001600160a01b03909116913480156108fc02929091818181858888f19350505050158015610700573d6000803e3d6000fd5b506040516323b872dd60e01b81526001600160a01b038516906323b872dd9061073190309033908690600401610a63565b600060405180830381600087803b15801561074b57600080fd5b505af115801561075f573d6000803e3d6000fd5b505050600084815260046020819052604090912090810180546001600160a01b03191633179055600601805460ff191660011790555061079f60026109ac565b505060016000555050565b606060006107b860016109a4565b905060008060005b8381101561081b5733600460006107d8846001610c10565b81526020810191909152604001600020600301546001600160a01b0316141561080957610806600184610c10565b92505b8061081381610c3f565b9150506107c0565b5060008267ffffffffffffffff81111561084557634e487b7160e01b600052604160045260246000fd5b60405190808252806020026020018201604052801561087e57816020015b61086b6109b5565b8152602001906001900390816108635790505b50905060005b8481101561028757336004600061089c846001610c10565b81526020810191909152604001600020600301546001600160a01b031614156109925760006004816108cf846001610c10565b81526020808201929092526040908101600090812054808252600480855291839020835160e0810185528154815260018201546001600160a01b0390811696820196909652600282015494810194909452600381015485166060850152918201549093166080830152600581015460a0830152600681015460ff16151560c083015285519293509185908790811061097757634e487b7160e01b600052603260045260246000fd5b602090810291909101015261098d600186610c10565b945050505b8061099c81610c3f565b915050610884565b80545b919050565b80546001019055565b6040805160e081018252600080825260208201819052918101829052606081018290526080810182905260a0810182905260c081019190915290565b80356001600160a01b03811681146109a757600080fd5b60008060408385031215610a1a578182fd5b610a23836109f1565b946020939093013593505050565b600080600060608486031215610a45578081fd5b610a4e846109f1565b95602085013595506040909401359392505050565b6001600160a01b039384168152919092166020820152604081019190915260600190565b6001600160a01b0394851681529290931660208301526040820152901515606082015260800190565b602080825282518282018190526000919060409081850190868401855b82811015610b3757815180518552868101516001600160a01b039081168887015286820151878701526060808301518216908701526080808301519091169086015260a0808201519086015260c09081015115159085015260e09093019290850190600101610acd565b5091979650505050505050565b602080825260409082018190527f506c65617365207375626d6974207468652061736b696e672070726963652069908201527f6e206f7264657220746f20636f6d706c65746520746865207075726368617365606082015260800190565b6020808252601f908201527f5265656e7472616e637947756172643a207265656e7472616e742063616c6c00604082015260600190565b6020808252601c908201527f5072696365206d757374206265206174206c6561737420312077656900000000604082015260600190565b60008219821115610c2357610c23610c5a565b500190565b600082821015610c3a57610c3a610c5a565b500390565b6000600019821415610c5357610c53610c5a565b5060010190565b634e487b7160e01b600052601160045260246000fdfea26469706673582212209d5d72749e52e82b68d273766398daeefa9bc75788374a6ec7a854cae8e5605164736f6c63430008010033",
  "immutableReferences": {},
  "source": "//Contract based on [https://docs.openzeppelin.com/contracts/3.x/erc721](https://docs.openzeppelin.com/contracts/3.x/erc721)\n// SPDX-License-Identifier: MIT\n\npragma solidity ^0.8.0;\n\n\nimport \"@openzeppelin/contracts/token/ERC721/ERC721.sol\";\nimport \"@openzeppelin/contracts/utils/Counters.sol\";\nimport \"@openzeppelin/contracts/security/ReentrancyGuard.sol\";\n\n\ncontract NFTMarketplace is ReentrancyGuard {\n    using Counters for Counters.Counter;\n    Counters.Counter private _itemIds;\n    Counters.Counter private _itemsSold;\n\n    address payable owner;\n\n    constructor() {\n        owner = payable(msg.sender);\n    }\n\n    struct MarketItem {\n        uint itemId;\n        address nftContract;\n        uint tokenId;\n        address payable seller;\n        address payable owner;\n        uint256 price;\n        bool sold;\n    }\n\n    mapping(uint256 => MarketItem) private idToMarketItem;\n\n    event MarketItemCreated (\n        uint indexed itemId,\n        address indexed nftContract,\n        uint indexed tokenId,\n        address seller,\n        address owner,\n        uint256 price,\n        bool sold\n    );\n\n    // take a nft and put it on the marketplace\n    function addNftInMarketplace(address nftContract, uint256 tokenId, uint256 price)\n    public payable nonReentrant {\n        require(price > 0, \"Price must be at least 1 wei\");\n\n        _itemIds.increment();\n        uint256 itemId = _itemIds.current();\n\n        idToMarketItem[itemId] = MarketItem(\n            itemId,\n            nftContract,\n            tokenId,\n            payable(msg.sender),\n            payable(address(0)),\n            price,\n            false\n        );\n\n        IERC721(nftContract).transferFrom(msg.sender, address(this), tokenId);\n\n        emit MarketItemCreated(\n            itemId,\n            nftContract,\n            tokenId,\n            msg.sender,\n            address(0),\n            price,\n            false\n        );\n    }\n\n// Buy Nft in marketplace\n    function buyNftInMarketplace(address nftContract, uint256 itemId) \n    public payable nonReentrant {\n        uint price = idToMarketItem[itemId].price;\n        uint tokenId = idToMarketItem[itemId].tokenId;\n    \n        require(msg.value == price, \"Please submit the asking price in order to complete the purchase\");\n\n        idToMarketItem[itemId].seller.transfer(msg.value);\n        IERC721(nftContract).transferFrom(address(this), msg.sender, tokenId);\n        idToMarketItem[itemId].owner = payable(msg.sender);\n        idToMarketItem[itemId].sold = true;\n        _itemsSold.increment();\n    }\n\n// Fetch Nfts put on Marketplace\n    function fetchMarketItems() public view returns (MarketItem[] memory) {\n        uint itemCount = _itemIds.current();\n        uint unsoldItemCount = _itemIds.current() - _itemsSold.current();\n        uint currentIndex = 0;\n\n        MarketItem[] memory items = new MarketItem[](unsoldItemCount);\n        for (uint i = 0; i < itemCount; i++)     {\n            if(idToMarketItem[i + 1].owner == address(0)) {\n                uint currentId = idToMarketItem[i + 1].itemId;\n                MarketItem storage currentItem = idToMarketItem[currentId];\n                items[currentIndex] = currentItem;\n                currentIndex += 1;\n            }\n        }\n        return items;\n    }\n\n// Fetch Nfts I bought on marketplace\n    function fetchMyNFTs() public view returns (MarketItem[] memory) {\n        uint totalItemCount = _itemIds.current();\n        uint itemCount = 0;\n        uint currentIndex = 0;\n\n        for (uint i = 0; i < totalItemCount; i++)     {\n            if(idToMarketItem[i + 1].owner == msg.sender) {\n                itemCount += 1;\n            }\n        }\n\n        MarketItem[] memory items = new MarketItem[](itemCount);\n        for (uint i = 0; i < totalItemCount; i++)     {\n            if(idToMarketItem[i + 1].owner == msg.sender) {\n                uint currentId = idToMarketItem[i + 1].itemId;\n                MarketItem storage currentItem = idToMarketItem[currentId];\n                items[currentIndex] = currentItem;\n                currentIndex += 1;\n            }\n        }\n        return items;\n    }\n\n// Fetch nfts I put on Marketplace\n    function fetchItemsCreated() public view returns (MarketItem[] memory) {\n        uint totalItemCount = _itemIds.current();\n        uint itemCount = 0;\n        uint currentIndex = 0;\n\n        for (uint i = 0; i < totalItemCount; i++)     {\n            if(idToMarketItem[i + 1].seller == msg.sender) {\n                itemCount += 1;\n            }\n        }\n\n        MarketItem[] memory items = new MarketItem[](itemCount);\n        for (uint i = 0; i < totalItemCount; i++)     {\n            if(idToMarketItem[i + 1].seller == msg.sender) {\n                uint currentId = idToMarketItem[i + 1].itemId;\n                MarketItem storage currentItem = idToMarketItem[currentId];\n                items[currentIndex] = currentItem;\n                currentIndex += 1;\n            }\n        }\n        return items;\n    }\n\n\n\n\n\n\n}\n  ",
  "sourcePath": "/Users/guillaume/Documents/cours/Enseirb/2A/S8/Projet Eirbmon/code/eirbmon/eirbmon/blockchain/contracts/Marketplace.sol",
  "compiler": {
    "name": "solc",
    "version": "0.8.1+commit.df193b15.Emscripten.clang"
  },
  "schemaVersion": "3.4.3",
  "updatedAt": "2022-04-26T14:31:05.701Z",
  "networkType": "ethereum",
  "devdoc": {
    "kind": "dev",
    "methods": {},
    "version": 1
  },
  "userdoc": {
    "kind": "user",
    "methods": {},
    "version": 1
  }
}